{
    "abi": [
        {
            "inputs": [
                {
                    "internalType": "address",
                    "name": "storageFactoryAddress",
                    "type": "address"
                }
            ],
            "stateMutability": "nonpayable",
            "type": "constructor"
        },
        {
            "inputs": [
                {
                    "internalType": "address",
                    "name": "contractAddress",
                    "type": "address"
                }
            ],
            "name": "PhantomStorageMixin__ContractNotFoundByAddressOrIsOutdated",
            "type": "error"
        },
        {
            "inputs": [
                {
                    "internalType": "bytes32",
                    "name": "contractName",
                    "type": "bytes32"
                }
            ],
            "name": "PhantomStorageMixin__ContractNotFoundByNameOrIsOutdated",
            "type": "error"
        },
        {
            "inputs": [
                {
                    "internalType": "address",
                    "name": "user",
                    "type": "address"
                }
            ],
            "name": "PhantomStorageMixin__UserIsNotGuardian",
            "type": "error"
        },
        {
            "inputs": [
                {
                    "internalType": "uint256",
                    "name": "inAmount",
                    "type": "uint256"
                },
                {
                    "internalType": "address",
                    "name": "inToken",
                    "type": "address"
                },
                {
                    "internalType": "bytes",
                    "name": "inBondType",
                    "type": "bytes"
                }
            ],
            "name": "bond",
            "outputs": [],
            "stateMutability": "nonpayable",
            "type": "function"
        },
        {
            "inputs": [
                {
                    "internalType": "uint256",
                    "name": "inAmount",
                    "type": "uint256"
                }
            ],
            "name": "stake",
            "outputs": [],
            "stateMutability": "nonpayable",
            "type": "function"
        },
        {
            "inputs": [
                {
                    "internalType": "uint256",
                    "name": "inAmount",
                    "type": "uint256"
                }
            ],
            "name": "unstake",
            "outputs": [],
            "stateMutability": "nonpayable",
            "type": "function"
        },
        {
            "inputs": [
                {
                    "internalType": "uint256",
                    "name": "inAmount",
                    "type": "uint256"
                }
            ],
            "name": "unwrap",
            "outputs": [],
            "stateMutability": "nonpayable",
            "type": "function"
        },
        {
            "inputs": [
                {
                    "internalType": "uint256",
                    "name": "inAmount",
                    "type": "uint256"
                }
            ],
            "name": "wrap",
            "outputs": [],
            "stateMutability": "nonpayable",
            "type": "function"
        }
    ],
    "bytecode": "601260e08181527139b2b1bab934ba3c9730b2323932b9b9b7b360711b6101009081526080918252600d6101209081526c73656375726974792e6e616d6560981b6101405260a0526101a060405260136101609081527f73656375726974792e72656769737465726564000000000000000000000000006101805260c05290916000916200009091839190620011a9565b506020828101518051620000ab9260018501920190620011a9565b5060408201518051620000c9916002840191602090910190620011a9565b50506040805161032081018252601b6102e082019081527f7068616e746f6d2e636f6e7472616374732e616c706861737761700000000000610300830152610100820190815282518084018452601a8082527f7068616e746f6d2e636f6e7472616374732e666f756e646572730000000000006020838101919091526101208501929092528451808601865260198082527f7068616e746f6d2e636f6e7472616374732e7374616b696e67000000000000008285015261014086019190915285518087018752601f8082527f7068616e746f6d2e636f6e7472616374732e7374616b696e677761726d75700082860152610160870191909152865180880188529182527f7068616e746f6d2e636f6e7472616374732e626f6e64696e67000000000000008285015261018086019190915285518087018752601581527f7068616e746f6d2e636f6e7472616374732e70686d0000000000000000000000818501526101a08601528551808701875260168082527f7068616e746f6d2e636f6e7472616374732e7370686d00000000000000000000828601526101c0870191909152865180880188528181527f7068616e746f6d2e636f6e7472616374732e6770686d00000000000000000000818601526101e0870152865180880188528181527f7068616e746f6d2e636f6e7472616374732e6170686d0000000000000000000081860152610200870152865180880188529081527f7068616e746f6d2e636f6e7472616374732e6670686d000000000000000000008185015261022086015285518087018752601781527f7068616e746f6d2e636f6e7472616374732e7661756c7400000000000000000081850152610240860152855180870187528281527f7068616e746f6d2e636f6e7472616374732e747265617375727900000000000081850152610260860152855180870187529081527f7068616e746f6d2e636f6e7472616374732e7370697269745f726f75746572008184015261028085015284518086018652601e81527f7068616e746f6d2e636f6e7472616374732e796561726e5f726f757465720000818401526102a0850152845180860186529081527f7068616e746f6d2e636f6e7472616374732e6578656375746f72000000000000818301526102c0840152908252825160c08101909352602a606084018181529294509084019291829162001a3a6080840139815260200160405180606001604052806040518060600160405280602b8152602001620019e4602b913981526020016040518060400160405280602081526020017f7068616e746f6d2e74726561737572792e6163636f756e745f6b65792e64616f815250815260200160405180606001604052806025815260200162001b286025913990528152604080518082018252601881527f7068616e746f6d2e74726561737572792e62616c616e636500000000000000006020828101919091529283015291835281516101c0810190925260246101608301818152938201938392830191829160c08501918291906200199c610180880139815260200160405180606001604052806025815260200162001b7160259139815260200160405180606001604052806024815260200162001b4d6024913981526020016040518060600160405280602b815260200162001a0f602b9139815260200160405180606001604052806027815260200162001bba60279139815250815260200160405180606001604052806025815260200162001ab460259139815260200160405180606001604052806029815260200162001aff6029913981526020016040518060400160405280601b81526020017f7068616e746f6d2e616c6c6f6361746f722e746f6b656e732e6c70000000000081525081526020016040518060400160405280601f81526020017f7068616e746f6d2e616c6c6f6361746f722e746f6b656e732e73696e676c650081525081525081525081526020016040518060e0016040528060405180604001604052806040518060400160405280601a81526020017f7068616e746f6d2e626f6e64696e672e757365722e6e6f6e636500000000000081525081526020016040518060600160405280602b815260200162001a64602b913981525081526020016040518060400160405280601d81526020017f7068616e746f6d2e626f6e64696e672e76657374696e67626c6f636b7300000081525081526020016040518060400160405280601881526020017f7068616e746f6d2e626f6e64696e672e646973636f756e74000000000000000081525081526020016040518060400160405280601b81526020017f7068616e746f6d2e626f6e64696e672e69735f72656465656d6564000000000081525081526020016040518060400160405280601681526020017f7068616e746f6d2e626f6e64696e672e7061796f75740000000000000000000081525081526020016040518060400160405280601e81526020017f7068616e746f6d2e626f6e64696e672e76657374735f61745f626c6f636b000081525081526020016040518060400160405280601881526020017f7068616e746f6d2e626f6e64696e672e69735f76616c69640000000000000000815250815250815260200160405180604001604052806040518060400160405280601d81526020017f7068616e746f6d2e7374616b696e672e726562617365436f756e746572000000815250815260200160405180606001604052806022815260200162001c246022913990528152604080516101208101909152602460c08201818152602090930192829160608301918291620019c060e086013981526020016040518060600160405280602681526020016200197660269139815260408051808201825260208082527f7068616e746f6d2e666f756e6465722e636c61696d732e6c617374436c61696d828201529283015291835281516060810183528082018281527f7068616e746f6d2e666f756e6465722e6368616e6765732e6e65774f776e65728285015281528382015281518083018352601d81527f7068616e746f6d2e666f756e6465722e76657374696e675374617274730000008183015292820192909252918352815160e081019092526025608083018181529390910192829162001a8f60a0840139815260200160405180606001604052806026815260200162001ad960269139815260200160405180606001604052806024815260200162001b966024913981526020016040518060600160405280602a815260200162001c46602a9139815250815260200160405180608001604052806040518060400160405280601c81526020017f7068616e746f6d2e676f7665726e6f722e766f74696e6744656c61790000000081525081526020016040518060400160405280601d81526020017f7068616e746f6d2e676f7665726e6f722e766f74696e67506572696f64000000815250815260200160405180606001604052806021815260200162001be160219139815260200160405180606001604052806022815260200162001c02602291399052905280518051805160039291839162000b0c918391602090910190620011a9565b50602082810151805162000b279260018501920190620011a9565b506040820151805162000b45916002840191602090910190620011a9565b506060820151805162000b63916003840191602090910190620011a9565b506080820151805162000b81916004840191602090910190620011a9565b5060a0820151805162000b9f916005840191602090910190620011a9565b5060c0820151805162000bbd916006840191602090910190620011a9565b5060e0820151805162000bdb916007840191602090910190620011a9565b50610100820151805162000bfa916008840191602090910190620011a9565b50610120820151805162000c19916009840191602090910190620011a9565b50610140820151805162000c3891600a840191602090910190620011a9565b50610160820151805162000c5791600b840191602090910190620011a9565b50610180820151805162000c7691600c840191602090910190620011a9565b506101a0820151805162000c9591600d840191602090910190620011a9565b506101c0820151805162000cb491600e840191602090910190620011a9565b505050602082810151805180519192600f85019262000cd79284920190620011a9565b50602082810151805180519192600185019262000cf89284920190620011a9565b50602082810151805162000d139260018501920190620011a9565b506040820151805162000d31916002840191602090910190620011a9565b5050506040820151805162000d51916004840191602090910190620011a9565b5050506040820151805180518051805160148601939284929091839162000d7e91839160200190620011a9565b50602082810151805162000d999260018501920190620011a9565b506040820151805162000db7916002840191602090910190620011a9565b506060820151805162000dd5916003840191602090910190620011a9565b506080820151805162000df3916004840191602090910190620011a9565b505050602082810151805162000e109260058501920190620011a9565b506040820151805162000e2e916006840191602090910190620011a9565b506060820151805162000e4c916007840191602090910190620011a9565b506080820151805162000e6a916008840191602090910190620011a9565b505050506060830151805180518051929350601d850192839162000e9491839160200190620011a9565b50602082810151805162000eaf9260018501920190620011a9565b505050602082810151805162000ecc9260028501920190620011a9565b506040820151805162000eea916003840191602090910190620011a9565b506060820151805162000f08916004840191602090910190620011a9565b506080820151805162000f26916005840191602090910190620011a9565b5060a0820151805162000f44916006840191602090910190620011a9565b5060c0820151805162000f62916007840191602090910190620011a9565b505050608082015180518051602584019162000f8491839160200190620011a9565b50602082810151805162000f9f9260018501920190620011a9565b50505060a0820151805180518051602785019291839162000fc8918391602090910190620011a9565b50602082810151805162000fe39260018501920190620011a9565b506040820151805162001001916002840191602090910190620011a9565b5050506020828101518051805191926003850192620010249284920190620011a9565b5050506040820151805162001044916004840191602090910190620011a9565b50505060c082015180518051602c8401916200106691839160200190620011a9565b506020828101518051620010819260018501920190620011a9565b50604082015180516200109f916002840191602090910190620011a9565b5060608201518051620010bd916003840191602090910190620011a9565b50505060e0820151805180516030840191620010df91839160200190620011a9565b506020828101518051620010fa9260018501920190620011a9565b506040820151805162001118916002840191602090910190620011a9565b506060820151805162001136916003840191602090910190620011a9565b50505050506d7068616e746f6d53746f7261676560901b6039553480156200115d57600080fd5b5060405162001c7038038062001c7083398101604081905262001180916200124f565b6001603755603880546001600160a01b0383166001600160a01b031990911617905550620012be565b828054620011b79062001281565b90600052602060002090601f016020900481019282620011db576000855562001226565b82601f10620011f657805160ff191683800117855562001226565b8280016001018555821562001226579182015b828111156200122657825182559160200191906001019062001209565b506200123492915062001238565b5090565b5b8082111562001234576000815560010162001239565b6000602082840312156200126257600080fd5b81516001600160a01b03811681146200127a57600080fd5b9392505050565b600181811c908216806200129657607f821691505b60208210811415620012b857634e487b7160e01b600052602260045260246000fd5b50919050565b6106a880620012ce6000396000f3fe608060405234801561001057600080fd5b50600436106100575760003560e01c80632e17de781461005c57806368e9f11814610071578063a694fc3a14610084578063de0e9a3e14610097578063ea598cb0146100aa575b600080fd5b61006f61006a366004610454565b6100bd565b005b61006f61007f366004610485565b610161565b61006f610092366004610454565b610207565b61006f6100a5366004610454565b61026c565b61006f6100b8366004610454565b610319565b600260375414156100e95760405162461bcd60e51b81526004016100e09061050e565b60405180910390fd5b60026037556100f661037e565b604051630615339760e51b8152336004820152602481018390526001600160a01b03919091169063c2a672e0906044015b600060405180830381600087803b15801561014157600080fd5b505af1158015610155573d6000803e3d6000fd5b50506001603755505050565b600260375414156101845760405162461bcd60e51b81526004016100e09061050e565b600260375561019161041d565b6001600160a01b031663b8ea4a1333868686866040518663ffffffff1660e01b81526004016101c4959493929190610545565b6020604051808303816000875af11580156101e3573d6000803e3d6000fd5b505050506040513d601f19601f820116820180604052508101906101559190610599565b6002603754141561022a5760405162461bcd60e51b81526004016100e09061050e565b600260375561023761037e565b6040516356e4bb9760e11b8152336004820152602481018390526001600160a01b03919091169063adc9772e90604401610127565b6002603754141561028f5760405162461bcd60e51b81526004016100e09061050e565b600260375561029c61037e565b6040516339f4769360e01b8152336004820152602481018390526001600160a01b0391909116906339f47693906044015b6020604051808303816000875af11580156102ec573d6000803e3d6000fd5b505050506040513d601f19601f820116820180604052508101906103109190610599565b50506001603755565b6002603754141561033c5760405162461bcd60e51b81526004016100e09061050e565b600260375561034961037e565b604051635f9bb63d60e11b8152336004820152602481018390526001600160a01b03919091169063bf376c7a906044016102cd565b60006103926038546001600160a01b031690565b6001600160a01b03166321f8a72160036000016002016040516103b591906105b2565b60405190819003812060e083901b6001600160e01b03191682526004820152602401602060405180830381865afa1580156103f4573d6000803e3d6000fd5b505050506040513d601f19601f82011682018060405250810190610418919061064e565b905090565b60006104316038546001600160a01b031690565b6001600160a01b03166321f8a72160036000016004016040516103b591906105b2565b60006020828403121561046657600080fd5b5035919050565b6001600160a01b038116811461048257600080fd5b50565b6000806000806060858703121561049b57600080fd5b8435935060208501356104ad8161046d565b9250604085013567ffffffffffffffff808211156104ca57600080fd5b818701915087601f8301126104de57600080fd5b8135818111156104ed57600080fd5b8860208285010111156104ff57600080fd5b95989497505060200194505050565b6020808252601f908201527f5265656e7472616e637947756172643a207265656e7472616e742063616c6c00604082015260600190565b6001600160a01b038681168252602082018690528416604082015260806060820181905281018290526000828460a0840137600060a0848401015260a0601f19601f85011683010190509695505050505050565b6000602082840312156105ab57600080fd5b5051919050565b600080835481600182811c9150808316806105ce57607f831692505b60208084108214156105ee57634e487b7160e01b86526022600452602486fd5b818015610602576001811461061357610640565b60ff19861689528489019650610640565b60008a81526020902060005b868110156106385781548b82015290850190830161061f565b505084890196505b509498975050505050505050565b60006020828403121561066057600080fd5b815161066b8161046d565b939250505056fea2646970667358221220e6b2274d49b5bacd3b95b380d6828326f16fccb6cd97c8fd3ddf2aa3ff074d0664736f6c634300080a00337068616e746f6d2e666f756e6465722e636c61696d732e72656d61696e696e67416d6f756e747068616e746f6d2e616c6c6f6361746f722e746f6b656e732e616464726573732e6461697068616e746f6d2e666f756e6465722e636c61696d732e696e697469616c416d6f756e747068616e746f6d2e74726561737572792e6163636f756e745f6b65792e76656e747572656361706974616c7068616e746f6d2e616c6c6f6361746f722e746f6b656e732e616464726573732e6461695f70686d5f6c707068616e746f6d2e74726561737572792e617070726f7665642e65787465726e616c2e616464726573737068616e746f6d2e626f6e64696e672e757365722e66697273745f756e72656465656d65645f6e6f6e63657068616e746f6d2e726f7574696e672e7370697269745f726f757465725f616464726573737068616e746f6d2e616c6c6f6361746f722e746f6b656e732e64657374696e6174696f6e737068616e746f6d2e726f7574696e672e7370697269745f666163746f72795f616464726573737068616e746f6d2e616c6c6f6361746f722e746f6b656e732e646573745f70657263656e74616765737068616e746f6d2e74726561737572792e6163636f756e745f6b65792e72657365727665737068616e746f6d2e616c6c6f6361746f722e746f6b656e732e616464726573732e6d696d7068616e746f6d2e616c6c6f6361746f722e746f6b656e732e616464726573732e7766746d7068616e746f6d2e726f7574696e672e7370697269745f67617567655f616464726573737068616e746f6d2e616c6c6f6361746f722e746f6b656e732e616464726573732e7370697269747068616e746f6d2e676f7665726e6f722e71756f72756d50657263656e746167657068616e746f6d2e676f7665726e6f722e70726f706f73616c5468726573686f6c647068616e746f6d2e7374616b696e672e6e657874526562617365446561646c696e657068616e746f6d2e726f7574696e672e7370697269745f67617567655f70726f78795f61646472657373",
    "bytecodeSha1": "da39a3ee5e6b4b0d3255bfef95601890afd80709",
    "compiler": {
        "evm_version": "istanbul",
        "optimizer": {
            "enabled": true,
            "runs": 200
        },
        "version": "0.8.10+commit.fc410830"
    },
    "contractName": "PhantomFinance",
    "language": "Solidity",
    "natspec": {
        "author": "0xrebased @ Bonga Bera Capital: https://github.com/BongaBeraCapital",
        "kind": "dev",
        "methods": {},
        "notice": "The dApp facing contract used for finance functions",
        "title": "PhantomFinance",
        "version": 1
    },
    "opcodes": "PUSH1 0x80 PUSH1 0x40 MSTORE CALLVALUE DUP1 ISZERO PUSH2 0x10 JUMPI PUSH1 0x0 DUP1 REVERT JUMPDEST POP PUSH1 0x4 CALLDATASIZE LT PUSH2 0x57 JUMPI PUSH1 0x0 CALLDATALOAD PUSH1 0xE0 SHR DUP1 PUSH4 0x2E17DE78 EQ PUSH2 0x5C JUMPI DUP1 PUSH4 0x68E9F118 EQ PUSH2 0x71 JUMPI DUP1 PUSH4 0xA694FC3A EQ PUSH2 0x84 JUMPI DUP1 PUSH4 0xDE0E9A3E EQ PUSH2 0x97 JUMPI DUP1 PUSH4 0xEA598CB0 EQ PUSH2 0xAA JUMPI JUMPDEST PUSH1 0x0 DUP1 REVERT JUMPDEST PUSH2 0x6F PUSH2 0x6A CALLDATASIZE PUSH1 0x4 PUSH2 0x454 JUMP JUMPDEST PUSH2 0xBD JUMP JUMPDEST STOP JUMPDEST PUSH2 0x6F PUSH2 0x7F CALLDATASIZE PUSH1 0x4 PUSH2 0x485 JUMP JUMPDEST PUSH2 0x161 JUMP JUMPDEST PUSH2 0x6F PUSH2 0x92 CALLDATASIZE PUSH1 0x4 PUSH2 0x454 JUMP JUMPDEST PUSH2 0x207 JUMP JUMPDEST PUSH2 0x6F PUSH2 0xA5 CALLDATASIZE PUSH1 0x4 PUSH2 0x454 JUMP JUMPDEST PUSH2 0x26C JUMP JUMPDEST PUSH2 0x6F PUSH2 0xB8 CALLDATASIZE PUSH1 0x4 PUSH2 0x454 JUMP JUMPDEST PUSH2 0x319 JUMP JUMPDEST PUSH1 0x2 PUSH1 0x37 SLOAD EQ ISZERO PUSH2 0xE9 JUMPI PUSH1 0x40 MLOAD PUSH3 0x461BCD PUSH1 0xE5 SHL DUP2 MSTORE PUSH1 0x4 ADD PUSH2 0xE0 SWAP1 PUSH2 0x50E JUMP JUMPDEST PUSH1 0x40 MLOAD DUP1 SWAP2 SUB SWAP1 REVERT JUMPDEST PUSH1 0x2 PUSH1 0x37 SSTORE PUSH2 0xF6 PUSH2 0x37E JUMP JUMPDEST PUSH1 0x40 MLOAD PUSH4 0x6153397 PUSH1 0xE5 SHL DUP2 MSTORE CALLER PUSH1 0x4 DUP3 ADD MSTORE PUSH1 0x24 DUP2 ADD DUP4 SWAP1 MSTORE PUSH1 0x1 PUSH1 0x1 PUSH1 0xA0 SHL SUB SWAP2 SWAP1 SWAP2 AND SWAP1 PUSH4 0xC2A672E0 SWAP1 PUSH1 0x44 ADD JUMPDEST PUSH1 0x0 PUSH1 0x40 MLOAD DUP1 DUP4 SUB DUP2 PUSH1 0x0 DUP8 DUP1 EXTCODESIZE ISZERO DUP1 ISZERO PUSH2 0x141 JUMPI PUSH1 0x0 DUP1 REVERT JUMPDEST POP GAS CALL ISZERO DUP1 ISZERO PUSH2 0x155 JUMPI RETURNDATASIZE PUSH1 0x0 DUP1 RETURNDATACOPY RETURNDATASIZE PUSH1 0x0 REVERT JUMPDEST POP POP PUSH1 0x1 PUSH1 0x37 SSTORE POP POP POP JUMP JUMPDEST PUSH1 0x2 PUSH1 0x37 SLOAD EQ ISZERO PUSH2 0x184 JUMPI PUSH1 0x40 MLOAD PUSH3 0x461BCD PUSH1 0xE5 SHL DUP2 MSTORE PUSH1 0x4 ADD PUSH2 0xE0 SWAP1 PUSH2 0x50E JUMP JUMPDEST PUSH1 0x2 PUSH1 0x37 SSTORE PUSH2 0x191 PUSH2 0x41D JUMP JUMPDEST PUSH1 0x1 PUSH1 0x1 PUSH1 0xA0 SHL SUB AND PUSH4 0xB8EA4A13 CALLER DUP7 DUP7 DUP7 DUP7 PUSH1 0x40 MLOAD DUP7 PUSH4 0xFFFFFFFF AND PUSH1 0xE0 SHL DUP2 MSTORE PUSH1 0x4 ADD PUSH2 0x1C4 SWAP6 SWAP5 SWAP4 SWAP3 SWAP2 SWAP1 PUSH2 0x545 JUMP JUMPDEST PUSH1 0x20 PUSH1 0x40 MLOAD DUP1 DUP4 SUB DUP2 PUSH1 0x0 DUP8 GAS CALL ISZERO DUP1 ISZERO PUSH2 0x1E3 JUMPI RETURNDATASIZE PUSH1 0x0 DUP1 RETURNDATACOPY RETURNDATASIZE PUSH1 0x0 REVERT JUMPDEST POP POP POP POP PUSH1 0x40 MLOAD RETURNDATASIZE PUSH1 0x1F NOT PUSH1 0x1F DUP3 ADD AND DUP3 ADD DUP1 PUSH1 0x40 MSTORE POP DUP2 ADD SWAP1 PUSH2 0x155 SWAP2 SWAP1 PUSH2 0x599 JUMP JUMPDEST PUSH1 0x2 PUSH1 0x37 SLOAD EQ ISZERO PUSH2 0x22A JUMPI PUSH1 0x40 MLOAD PUSH3 0x461BCD PUSH1 0xE5 SHL DUP2 MSTORE PUSH1 0x4 ADD PUSH2 0xE0 SWAP1 PUSH2 0x50E JUMP JUMPDEST PUSH1 0x2 PUSH1 0x37 SSTORE PUSH2 0x237 PUSH2 0x37E JUMP JUMPDEST PUSH1 0x40 MLOAD PUSH4 0x56E4BB97 PUSH1 0xE1 SHL DUP2 MSTORE CALLER PUSH1 0x4 DUP3 ADD MSTORE PUSH1 0x24 DUP2 ADD DUP4 SWAP1 MSTORE PUSH1 0x1 PUSH1 0x1 PUSH1 0xA0 SHL SUB SWAP2 SWAP1 SWAP2 AND SWAP1 PUSH4 0xADC9772E SWAP1 PUSH1 0x44 ADD PUSH2 0x127 JUMP JUMPDEST PUSH1 0x2 PUSH1 0x37 SLOAD EQ ISZERO PUSH2 0x28F JUMPI PUSH1 0x40 MLOAD PUSH3 0x461BCD PUSH1 0xE5 SHL DUP2 MSTORE PUSH1 0x4 ADD PUSH2 0xE0 SWAP1 PUSH2 0x50E JUMP JUMPDEST PUSH1 0x2 PUSH1 0x37 SSTORE PUSH2 0x29C PUSH2 0x37E JUMP JUMPDEST PUSH1 0x40 MLOAD PUSH4 0x39F47693 PUSH1 0xE0 SHL DUP2 MSTORE CALLER PUSH1 0x4 DUP3 ADD MSTORE PUSH1 0x24 DUP2 ADD DUP4 SWAP1 MSTORE PUSH1 0x1 PUSH1 0x1 PUSH1 0xA0 SHL SUB SWAP2 SWAP1 SWAP2 AND SWAP1 PUSH4 0x39F47693 SWAP1 PUSH1 0x44 ADD JUMPDEST PUSH1 0x20 PUSH1 0x40 MLOAD DUP1 DUP4 SUB DUP2 PUSH1 0x0 DUP8 GAS CALL ISZERO DUP1 ISZERO PUSH2 0x2EC JUMPI RETURNDATASIZE PUSH1 0x0 DUP1 RETURNDATACOPY RETURNDATASIZE PUSH1 0x0 REVERT JUMPDEST POP POP POP POP PUSH1 0x40 MLOAD RETURNDATASIZE PUSH1 0x1F NOT PUSH1 0x1F DUP3 ADD AND DUP3 ADD DUP1 PUSH1 0x40 MSTORE POP DUP2 ADD SWAP1 PUSH2 0x310 SWAP2 SWAP1 PUSH2 0x599 JUMP JUMPDEST POP POP PUSH1 0x1 PUSH1 0x37 SSTORE JUMP JUMPDEST PUSH1 0x2 PUSH1 0x37 SLOAD EQ ISZERO PUSH2 0x33C JUMPI PUSH1 0x40 MLOAD PUSH3 0x461BCD PUSH1 0xE5 SHL DUP2 MSTORE PUSH1 0x4 ADD PUSH2 0xE0 SWAP1 PUSH2 0x50E JUMP JUMPDEST PUSH1 0x2 PUSH1 0x37 SSTORE PUSH2 0x349 PUSH2 0x37E JUMP JUMPDEST PUSH1 0x40 MLOAD PUSH4 0x5F9BB63D PUSH1 0xE1 SHL DUP2 MSTORE CALLER PUSH1 0x4 DUP3 ADD MSTORE PUSH1 0x24 DUP2 ADD DUP4 SWAP1 MSTORE PUSH1 0x1 PUSH1 0x1 PUSH1 0xA0 SHL SUB SWAP2 SWAP1 SWAP2 AND SWAP1 PUSH4 0xBF376C7A SWAP1 PUSH1 0x44 ADD PUSH2 0x2CD JUMP JUMPDEST PUSH1 0x0 PUSH2 0x392 PUSH1 0x38 SLOAD PUSH1 0x1 PUSH1 0x1 PUSH1 0xA0 SHL SUB AND SWAP1 JUMP JUMPDEST PUSH1 0x1 PUSH1 0x1 PUSH1 0xA0 SHL SUB AND PUSH4 0x21F8A721 PUSH1 0x3 PUSH1 0x0 ADD PUSH1 0x2 ADD PUSH1 0x40 MLOAD PUSH2 0x3B5 SWAP2 SWAP1 PUSH2 0x5B2 JUMP JUMPDEST PUSH1 0x40 MLOAD SWAP1 DUP2 SWAP1 SUB DUP2 KECCAK256 PUSH1 0xE0 DUP4 SWAP1 SHL PUSH1 0x1 PUSH1 0x1 PUSH1 0xE0 SHL SUB NOT AND DUP3 MSTORE PUSH1 0x4 DUP3 ADD MSTORE PUSH1 0x24 ADD PUSH1 0x20 PUSH1 0x40 MLOAD DUP1 DUP4 SUB DUP2 DUP7 GAS STATICCALL ISZERO DUP1 ISZERO PUSH2 0x3F4 JUMPI RETURNDATASIZE PUSH1 0x0 DUP1 RETURNDATACOPY RETURNDATASIZE PUSH1 0x0 REVERT JUMPDEST POP POP POP POP PUSH1 0x40 MLOAD RETURNDATASIZE PUSH1 0x1F NOT PUSH1 0x1F DUP3 ADD AND DUP3 ADD DUP1 PUSH1 0x40 MSTORE POP DUP2 ADD SWAP1 PUSH2 0x418 SWAP2 SWAP1 PUSH2 0x64E JUMP JUMPDEST SWAP1 POP SWAP1 JUMP JUMPDEST PUSH1 0x0 PUSH2 0x431 PUSH1 0x38 SLOAD PUSH1 0x1 PUSH1 0x1 PUSH1 0xA0 SHL SUB AND SWAP1 JUMP JUMPDEST PUSH1 0x1 PUSH1 0x1 PUSH1 0xA0 SHL SUB AND PUSH4 0x21F8A721 PUSH1 0x3 PUSH1 0x0 ADD PUSH1 0x4 ADD PUSH1 0x40 MLOAD PUSH2 0x3B5 SWAP2 SWAP1 PUSH2 0x5B2 JUMP JUMPDEST PUSH1 0x0 PUSH1 0x20 DUP3 DUP5 SUB SLT ISZERO PUSH2 0x466 JUMPI PUSH1 0x0 DUP1 REVERT JUMPDEST POP CALLDATALOAD SWAP2 SWAP1 POP JUMP JUMPDEST PUSH1 0x1 PUSH1 0x1 PUSH1 0xA0 SHL SUB DUP2 AND DUP2 EQ PUSH2 0x482 JUMPI PUSH1 0x0 DUP1 REVERT JUMPDEST POP JUMP JUMPDEST PUSH1 0x0 DUP1 PUSH1 0x0 DUP1 PUSH1 0x60 DUP6 DUP8 SUB SLT ISZERO PUSH2 0x49B JUMPI PUSH1 0x0 DUP1 REVERT JUMPDEST DUP5 CALLDATALOAD SWAP4 POP PUSH1 0x20 DUP6 ADD CALLDATALOAD PUSH2 0x4AD DUP2 PUSH2 0x46D JUMP JUMPDEST SWAP3 POP PUSH1 0x40 DUP6 ADD CALLDATALOAD PUSH8 0xFFFFFFFFFFFFFFFF DUP1 DUP3 GT ISZERO PUSH2 0x4CA JUMPI PUSH1 0x0 DUP1 REVERT JUMPDEST DUP2 DUP8 ADD SWAP2 POP DUP8 PUSH1 0x1F DUP4 ADD SLT PUSH2 0x4DE JUMPI PUSH1 0x0 DUP1 REVERT JUMPDEST DUP2 CALLDATALOAD DUP2 DUP2 GT ISZERO PUSH2 0x4ED JUMPI PUSH1 0x0 DUP1 REVERT JUMPDEST DUP9 PUSH1 0x20 DUP3 DUP6 ADD ADD GT ISZERO PUSH2 0x4FF JUMPI PUSH1 0x0 DUP1 REVERT JUMPDEST SWAP6 SWAP9 SWAP5 SWAP8 POP POP PUSH1 0x20 ADD SWAP5 POP POP POP JUMP JUMPDEST PUSH1 0x20 DUP1 DUP3 MSTORE PUSH1 0x1F SWAP1 DUP3 ADD MSTORE PUSH32 0x5265656E7472616E637947756172643A207265656E7472616E742063616C6C00 PUSH1 0x40 DUP3 ADD MSTORE PUSH1 0x60 ADD SWAP1 JUMP JUMPDEST PUSH1 0x1 PUSH1 0x1 PUSH1 0xA0 SHL SUB DUP7 DUP2 AND DUP3 MSTORE PUSH1 0x20 DUP3 ADD DUP7 SWAP1 MSTORE DUP5 AND PUSH1 0x40 DUP3 ADD MSTORE PUSH1 0x80 PUSH1 0x60 DUP3 ADD DUP2 SWAP1 MSTORE DUP2 ADD DUP3 SWAP1 MSTORE PUSH1 0x0 DUP3 DUP5 PUSH1 0xA0 DUP5 ADD CALLDATACOPY PUSH1 0x0 PUSH1 0xA0 DUP5 DUP5 ADD ADD MSTORE PUSH1 0xA0 PUSH1 0x1F NOT PUSH1 0x1F DUP6 ADD AND DUP4 ADD ADD SWAP1 POP SWAP7 SWAP6 POP POP POP POP POP POP JUMP JUMPDEST PUSH1 0x0 PUSH1 0x20 DUP3 DUP5 SUB SLT ISZERO PUSH2 0x5AB JUMPI PUSH1 0x0 DUP1 REVERT JUMPDEST POP MLOAD SWAP2 SWAP1 POP JUMP JUMPDEST PUSH1 0x0 DUP1 DUP4 SLOAD DUP2 PUSH1 0x1 DUP3 DUP2 SHR SWAP2 POP DUP1 DUP4 AND DUP1 PUSH2 0x5CE JUMPI PUSH1 0x7F DUP4 AND SWAP3 POP JUMPDEST PUSH1 0x20 DUP1 DUP5 LT DUP3 EQ ISZERO PUSH2 0x5EE JUMPI PUSH4 0x4E487B71 PUSH1 0xE0 SHL DUP7 MSTORE PUSH1 0x22 PUSH1 0x4 MSTORE PUSH1 0x24 DUP7 REVERT JUMPDEST DUP2 DUP1 ISZERO PUSH2 0x602 JUMPI PUSH1 0x1 DUP2 EQ PUSH2 0x613 JUMPI PUSH2 0x640 JUMP JUMPDEST PUSH1 0xFF NOT DUP7 AND DUP10 MSTORE DUP5 DUP10 ADD SWAP7 POP PUSH2 0x640 JUMP JUMPDEST PUSH1 0x0 DUP11 DUP2 MSTORE PUSH1 0x20 SWAP1 KECCAK256 PUSH1 0x0 JUMPDEST DUP7 DUP2 LT ISZERO PUSH2 0x638 JUMPI DUP2 SLOAD DUP12 DUP3 ADD MSTORE SWAP1 DUP6 ADD SWAP1 DUP4 ADD PUSH2 0x61F JUMP JUMPDEST POP POP DUP5 DUP10 ADD SWAP7 POP JUMPDEST POP SWAP5 SWAP9 SWAP8 POP POP POP POP POP POP POP POP JUMP JUMPDEST PUSH1 0x0 PUSH1 0x20 DUP3 DUP5 SUB SLT ISZERO PUSH2 0x660 JUMPI PUSH1 0x0 DUP1 REVERT JUMPDEST DUP2 MLOAD PUSH2 0x66B DUP2 PUSH2 0x46D JUMP JUMPDEST SWAP4 SWAP3 POP POP POP JUMP INVALID LOG2 PUSH5 0x6970667358 0x22 SLT KECCAK256 0xE6 0xB2 0x27 0x4D 0x49 0xB5 0xBA 0xCD EXTCODESIZE SWAP6 0xB3 DUP1 0xD6 DUP3 DUP4 0x26 CALL PUSH16 0xCCB6CD97C8FD3DDF2AA3FF074D066473 PUSH16 0x6C634300080A00330000000000000000 ",
    "sha1": "5ff5ec9a38c73f6565d52a43a3ee8a22217961a9",
    "source": "/* SPDX-License-Identifier: MIT */\npragma solidity =0.8.10;\n\n/* Package Imports */\nimport {PRBMathUD60x18} from \"@hifi-finance/prb-math/contracts/PRBMathUD60x18.sol\";\n\n/* Internal Imports */\nimport {PhantomStorageMixin} from \"../../mixins/PhantomStorageMixin.sol\";\n\n/* Internal Interface Imports */\nimport {IPhantomFinance} from \"../../../interfaces/level1/finance/IPhantomFinance.sol\";\nimport {IPhantomERC20} from \"../../../interfaces/core/erc20/IPhantomERC20.sol\";\n\n/**\n * @title PhantomFinance\n * @author 0xrebased @ Bonga Bera Capital: https://github.com/BongaBeraCapital\n * @notice The dApp facing contract used for finance functions\n */\ncontract PhantomFinance is PhantomStorageMixin, IPhantomFinance {\n    using PRBMathUD60x18 for uint256;\n\n    constructor(address storageFactoryAddress) PhantomStorageMixin(storageFactoryAddress) {\n        return;\n    }\n\n    //=================================================================================================================\n    // External Functions\n    //=================================================================================================================\n\n    function stake(uint256 inAmount) external override nonReentrant {\n        PhantomStaking().stake(msg.sender, inAmount);\n    }\n\n    function unstake(uint256 inAmount) external override nonReentrant {\n        PhantomStaking().unstake(msg.sender, inAmount);\n    }\n\n    function wrap(uint256 inAmount) external override nonReentrant {\n        PhantomStaking().wrap(msg.sender, inAmount);\n    }\n\n    function unwrap (uint256 inAmount) external override nonReentrant {\n        PhantomStaking().unwrap(msg.sender, inAmount);\n    }\n\n    function bond(\n        uint256 inAmount,\n        address inToken,\n        bytes calldata inBondType\n    ) external override nonReentrant {\n        PhantomBonding().createBond(msg.sender, inAmount, inToken, inBondType);\n    }\n}\n",
    "sourcePath": "contracts/level1/finance/PhantomFinance.sol",
    "type": "contract"
}