{
    "abi": [
        {
            "inputs": [
                {
                    "internalType": "address",
                    "name": "storageFactoryAddress",
                    "type": "address"
                }
            ],
            "stateMutability": "nonpayable",
            "type": "constructor"
        },
        {
            "inputs": [
                {
                    "internalType": "address",
                    "name": "contractAddress",
                    "type": "address"
                }
            ],
            "name": "PhantomStorageMixin__ContractNotFoundByAddressOrIsOutdated",
            "type": "error"
        },
        {
            "inputs": [
                {
                    "internalType": "bytes32",
                    "name": "contractName",
                    "type": "bytes32"
                }
            ],
            "name": "PhantomStorageMixin__ContractNotFoundByNameOrIsOutdated",
            "type": "error"
        },
        {
            "inputs": [
                {
                    "internalType": "address",
                    "name": "user",
                    "type": "address"
                }
            ],
            "name": "PhantomStorageMixin__UserIsNotGuardian",
            "type": "error"
        },
        {
            "inputs": [],
            "name": "attemptRebase",
            "outputs": [
                {
                    "internalType": "uint256",
                    "name": "",
                    "type": "uint256"
                }
            ],
            "stateMutability": "nonpayable",
            "type": "function"
        },
        {
            "inputs": [],
            "name": "initializeRebasing",
            "outputs": [],
            "stateMutability": "nonpayable",
            "type": "function"
        },
        {
            "inputs": [
                {
                    "internalType": "address",
                    "name": "inStaker",
                    "type": "address"
                },
                {
                    "internalType": "uint256",
                    "name": "inAmount",
                    "type": "uint256"
                }
            ],
            "name": "stake",
            "outputs": [],
            "stateMutability": "nonpayable",
            "type": "function"
        },
        {
            "inputs": [
                {
                    "internalType": "address",
                    "name": "inUnstaker",
                    "type": "address"
                },
                {
                    "internalType": "uint256",
                    "name": "inAmount",
                    "type": "uint256"
                }
            ],
            "name": "unstake",
            "outputs": [],
            "stateMutability": "nonpayable",
            "type": "function"
        },
        {
            "inputs": [
                {
                    "internalType": "address",
                    "name": "toUser",
                    "type": "address"
                },
                {
                    "internalType": "uint256",
                    "name": "amount",
                    "type": "uint256"
                }
            ],
            "name": "unwrap",
            "outputs": [
                {
                    "internalType": "uint256",
                    "name": "sBalance",
                    "type": "uint256"
                }
            ],
            "stateMutability": "nonpayable",
            "type": "function"
        },
        {
            "inputs": [
                {
                    "internalType": "address",
                    "name": "toUser",
                    "type": "address"
                },
                {
                    "internalType": "uint256",
                    "name": "amount",
                    "type": "uint256"
                }
            ],
            "name": "wrap",
            "outputs": [
                {
                    "internalType": "uint256",
                    "name": "gBalance",
                    "type": "uint256"
                }
            ],
            "stateMutability": "nonpayable",
            "type": "function"
        }
    ],
    "bytecode": "601260e08181527139b2b1bab934ba3c9730b2323932b9b9b7b360711b6101009081526080918252600d6101209081526c73656375726974792e6e616d6560981b6101405260a0526101a060405260136101609081527f73656375726974792e72656769737465726564000000000000000000000000006101805260c05290916000916200009091839190620011a9565b506020828101518051620000ab9260018501920190620011a9565b5060408201518051620000c9916002840191602090910190620011a9565b50506040805161032081018252601b6102e082019081527f7068616e746f6d2e636f6e7472616374732e616c706861737761700000000000610300830152610100820190815282518084018452601a8082527f7068616e746f6d2e636f6e7472616374732e666f756e646572730000000000006020838101919091526101208501929092528451808601865260198082527f7068616e746f6d2e636f6e7472616374732e7374616b696e67000000000000008285015261014086019190915285518087018752601f8082527f7068616e746f6d2e636f6e7472616374732e7374616b696e677761726d75700082860152610160870191909152865180880188529182527f7068616e746f6d2e636f6e7472616374732e626f6e64696e67000000000000008285015261018086019190915285518087018752601581527f7068616e746f6d2e636f6e7472616374732e70686d0000000000000000000000818501526101a08601528551808701875260168082527f7068616e746f6d2e636f6e7472616374732e7370686d00000000000000000000828601526101c0870191909152865180880188528181527f7068616e746f6d2e636f6e7472616374732e6770686d00000000000000000000818601526101e0870152865180880188528181527f7068616e746f6d2e636f6e7472616374732e6170686d0000000000000000000081860152610200870152865180880188529081527f7068616e746f6d2e636f6e7472616374732e6670686d000000000000000000008185015261022086015285518087018752601781527f7068616e746f6d2e636f6e7472616374732e7661756c7400000000000000000081850152610240860152855180870187528281527f7068616e746f6d2e636f6e7472616374732e747265617375727900000000000081850152610260860152855180870187529081527f7068616e746f6d2e636f6e7472616374732e7370697269745f726f75746572008184015261028085015284518086018652601e81527f7068616e746f6d2e636f6e7472616374732e796561726e5f726f757465720000818401526102a0850152845180860186529081527f7068616e746f6d2e636f6e7472616374732e6578656375746f72000000000000818301526102c0840152908252825160c08101909352602a6060840181815292945090840192918291620027006080840139815260200160405180606001604052806040518060600160405280602b8152602001620026aa602b913981526020016040518060400160405280602081526020017f7068616e746f6d2e74726561737572792e6163636f756e745f6b65792e64616f8152508152602001604051806060016040528060258152602001620027ee6025913990528152604080518082018252601881527f7068616e746f6d2e74726561737572792e62616c616e636500000000000000006020828101919091529283015291835281516101c0810190925260246101608301818152938201938392830191829160c085019182919062002662610180880139815260200160405180606001604052806025815260200162002837602591398152602001604051806060016040528060248152602001620028136024913981526020016040518060600160405280602b8152602001620026d5602b91398152602001604051806060016040528060278152602001620028806027913981525081526020016040518060600160405280602581526020016200277a602591398152602001604051806060016040528060298152602001620027c56029913981526020016040518060400160405280601b81526020017f7068616e746f6d2e616c6c6f6361746f722e746f6b656e732e6c70000000000081525081526020016040518060400160405280601f81526020017f7068616e746f6d2e616c6c6f6361746f722e746f6b656e732e73696e676c650081525081525081525081526020016040518060e0016040528060405180604001604052806040518060400160405280601a81526020017f7068616e746f6d2e626f6e64696e672e757365722e6e6f6e636500000000000081525081526020016040518060600160405280602b81526020016200272a602b913981525081526020016040518060400160405280601d81526020017f7068616e746f6d2e626f6e64696e672e76657374696e67626c6f636b7300000081525081526020016040518060400160405280601881526020017f7068616e746f6d2e626f6e64696e672e646973636f756e74000000000000000081525081526020016040518060400160405280601b81526020017f7068616e746f6d2e626f6e64696e672e69735f72656465656d6564000000000081525081526020016040518060400160405280601681526020017f7068616e746f6d2e626f6e64696e672e7061796f75740000000000000000000081525081526020016040518060400160405280601e81526020017f7068616e746f6d2e626f6e64696e672e76657374735f61745f626c6f636b000081525081526020016040518060400160405280601881526020017f7068616e746f6d2e626f6e64696e672e69735f76616c69640000000000000000815250815250815260200160405180604001604052806040518060400160405280601d81526020017f7068616e746f6d2e7374616b696e672e726562617365436f756e7465720000008152508152602001604051806060016040528060228152602001620028ea6022913990528152604080516101208101909152602460c082018181526020909301928291606083019182916200268660e086013981526020016040518060600160405280602681526020016200263c60269139815260408051808201825260208082527f7068616e746f6d2e666f756e6465722e636c61696d732e6c617374436c61696d828201529283015291835281516060810183528082018281527f7068616e746f6d2e666f756e6465722e6368616e6765732e6e65774f776e65728285015281528382015281518083018352601d81527f7068616e746f6d2e666f756e6465722e76657374696e675374617274730000008183015292820192909252918352815160e08101909252602560808301818152939091019282916200275560a084013981526020016040518060600160405280602681526020016200279f6026913981526020016040518060600160405280602481526020016200285c6024913981526020016040518060600160405280602a81526020016200290c602a9139815250815260200160405180608001604052806040518060400160405280601c81526020017f7068616e746f6d2e676f7665726e6f722e766f74696e6744656c61790000000081525081526020016040518060400160405280601d81526020017f7068616e746f6d2e676f7665726e6f722e766f74696e67506572696f640000008152508152602001604051806060016040528060218152602001620028a7602191398152602001604051806060016040528060228152602001620028c8602291399052905280518051805160039291839162000b0c918391602090910190620011a9565b50602082810151805162000b279260018501920190620011a9565b506040820151805162000b45916002840191602090910190620011a9565b506060820151805162000b63916003840191602090910190620011a9565b506080820151805162000b81916004840191602090910190620011a9565b5060a0820151805162000b9f916005840191602090910190620011a9565b5060c0820151805162000bbd916006840191602090910190620011a9565b5060e0820151805162000bdb916007840191602090910190620011a9565b50610100820151805162000bfa916008840191602090910190620011a9565b50610120820151805162000c19916009840191602090910190620011a9565b50610140820151805162000c3891600a840191602090910190620011a9565b50610160820151805162000c5791600b840191602090910190620011a9565b50610180820151805162000c7691600c840191602090910190620011a9565b506101a0820151805162000c9591600d840191602090910190620011a9565b506101c0820151805162000cb491600e840191602090910190620011a9565b505050602082810151805180519192600f85019262000cd79284920190620011a9565b50602082810151805180519192600185019262000cf89284920190620011a9565b50602082810151805162000d139260018501920190620011a9565b506040820151805162000d31916002840191602090910190620011a9565b5050506040820151805162000d51916004840191602090910190620011a9565b5050506040820151805180518051805160148601939284929091839162000d7e91839160200190620011a9565b50602082810151805162000d999260018501920190620011a9565b506040820151805162000db7916002840191602090910190620011a9565b506060820151805162000dd5916003840191602090910190620011a9565b506080820151805162000df3916004840191602090910190620011a9565b505050602082810151805162000e109260058501920190620011a9565b506040820151805162000e2e916006840191602090910190620011a9565b506060820151805162000e4c916007840191602090910190620011a9565b506080820151805162000e6a916008840191602090910190620011a9565b505050506060830151805180518051929350601d850192839162000e9491839160200190620011a9565b50602082810151805162000eaf9260018501920190620011a9565b505050602082810151805162000ecc9260028501920190620011a9565b506040820151805162000eea916003840191602090910190620011a9565b506060820151805162000f08916004840191602090910190620011a9565b506080820151805162000f26916005840191602090910190620011a9565b5060a0820151805162000f44916006840191602090910190620011a9565b5060c0820151805162000f62916007840191602090910190620011a9565b505050608082015180518051602584019162000f8491839160200190620011a9565b50602082810151805162000f9f9260018501920190620011a9565b50505060a0820151805180518051602785019291839162000fc8918391602090910190620011a9565b50602082810151805162000fe39260018501920190620011a9565b506040820151805162001001916002840191602090910190620011a9565b5050506020828101518051805191926003850192620010249284920190620011a9565b5050506040820151805162001044916004840191602090910190620011a9565b50505060c082015180518051602c8401916200106691839160200190620011a9565b506020828101518051620010819260018501920190620011a9565b50604082015180516200109f916002840191602090910190620011a9565b5060608201518051620010bd916003840191602090910190620011a9565b50505060e0820151805180516030840191620010df91839160200190620011a9565b506020828101518051620010fa9260018501920190620011a9565b506040820151805162001118916002840191602090910190620011a9565b506060820151805162001136916003840191602090910190620011a9565b50505050506d7068616e746f6d53746f7261676560901b6039553480156200115d57600080fd5b50604051620029363803806200293683398101604081905262001180916200124f565b6001603755603880546001600160a01b0383166001600160a01b031990911617905550620012be565b828054620011b79062001281565b90600052602060002090601f016020900481019282620011db576000855562001226565b82601f10620011f657805160ff191683800117855562001226565b8280016001018555821562001226579182015b828111156200122657825182559160200191906001019062001209565b506200123492915062001238565b5090565b5b8082111562001234576000815560010162001239565b6000602082840312156200126257600080fd5b81516001600160a01b03811681146200127a57600080fd5b9392505050565b600181811c908216806200129657607f821691505b60208210811415620012b857634e487b7160e01b600052602260045260246000fd5b50919050565b61136e80620012ce6000396000f3fe608060405234801561001057600080fd5b50600436106100625760003560e01c80630f5212801461006757806339f476931461008157806358b5e47514610094578063adc9772e1461009e578063bf376c7a146100b1578063c2a672e0146100c4575b600080fd5b61006f6100d7565b60405190815260200160405180910390f35b61006f61008f366004611093565b610468565b61009c61066a565b005b61009c6100ac366004611093565b6108d4565b61006f6100bf366004611093565b610ac6565b61009c6100d2366004611093565b610c53565b6000806100ec6038546001600160a01b031690565b6001600160a01b031663bd02d0f5600360250160010160405160200161011291906110bf565b604051602081830303815290604052805190602001206040518263ffffffff1660e01b815260040161014691815260200190565b602060405180830381865afa158015610163573d6000803e3d6000fd5b505050506040513d601f19601f82011682018060405250810190610187919061115b565b90504281116104645760006101a46038546001600160a01b031690565b6001600160a01b031663bd02d0f560036025016000016040516020016101ca91906110bf565b604051602081830303815290604052805190602001206040518263ffffffff1660e01b81526004016101fe91815260200190565b602060405180830381865afa15801561021b573d6000803e3d6000fd5b505050506040513d601f19601f8201168201806040525081019061023f919061115b565b9050610249610e5e565b6001600160a01b0316639d33c8d7826040518263ffffffff1660e01b815260040161027691815260200190565b600060405180830381600087803b15801561029057600080fd5b505af11580156102a4573d6000803e3d6000fd5b505050506102ba6038546001600160a01b031690565b6001600160a01b031663adb353dc60036025016000016040516020016102e091906110bf565b60408051601f198184030181529082905280516020909101206001600160e01b031960e084901b168252600482015260016024820152604401600060405180830381600087803b15801561033357600080fd5b505af1158015610347573d6000803e3d6000fd5b5050505061035d6038546001600160a01b031690565b6001600160a01b031663e2a4853a600360250160010160405160200161038391906110bf565b604051602081830303815290604052805190602001206103a1610e5e565b6001600160a01b0316634d55fe5f6040518163ffffffff1660e01b8152600401602060405180830381865afa1580156103de573d6000803e3d6000fd5b505050506040513d601f19601f82011682018060405250810190610402919061115b565b61040c9086611174565b6040516001600160e01b031960e085901b16815260048101929092526024820152604401600060405180830381600087803b15801561044a57600080fd5b505af115801561045e573d6000803e3d6000fd5b50505050505b5090565b600061047c6038546001600160a01b031690565b6001600160a01b0316637ae1cfca3360405160200161049b919061119a565b604051602081830303815290604052805190602001206040518263ffffffff1660e01b81526004016104cf91815260200190565b602060405180830381865afa1580156104ec573d6000803e3d6000fd5b505050506040513d601f19601f8201168201806040525081019061051091906111dd565b6105345760405163372463e360e01b81523360048201526024015b60405180910390fd5b600260375414156105575760405162461bcd60e51b815260040161052b90611206565b6002603755610564610efd565b6001600160a01b031663bfdf9cd0848461057c610f34565b610584610f34565b6001600160a01b031663d4ff9a2c886040518263ffffffff1660e01b81526004016105b191815260200190565b602060405180830381865afa1580156105ce573d6000803e3d6000fd5b505050506040513d601f19601f820116820180604052508101906105f2919061115b565b6105fa610e5e565b610602610f6b565b61060a610fcb565b6040518863ffffffff1660e01b815260040161062c9796959493929190611278565b600060405180830381600087803b15801561064657600080fd5b505af115801561065a573d6000803e3d6000fd5b5050600160375550909392505050565b6038546001600160a01b03166001600160a01b0316637ae1cfca33604051602001610695919061119a565b604051602081830303815290604052805190602001206040518263ffffffff1660e01b81526004016106c991815260200190565b602060405180830381865afa1580156106e6573d6000803e3d6000fd5b505050506040513d601f19601f8201168201806040525081019061070a91906111dd565b6107295760405163372463e360e01b815233600482015260240161052b565b6038546040516001600160a01b039091169063e2a4853a90610750906028906020016110bf565b60408051601f198184030181529082905280516020909101206001600160e01b031960e084901b168252600482015260016024820152604401600060405180830381600087803b1580156107a357600080fd5b505af11580156107b7573d6000803e3d6000fd5b505050506107cd6038546001600160a01b031690565b6001600160a01b031663e2a4853a60036025016001016040516020016107f391906110bf565b60405160208183030381529060405280519060200120610811610e5e565b6001600160a01b0316634d55fe5f6040518163ffffffff1660e01b8152600401602060405180830381865afa15801561084e573d6000803e3d6000fd5b505050506040513d601f19601f82011682018060405250810190610872919061115b565b61087c9042611174565b6040516001600160e01b031960e085901b16815260048101929092526024820152604401600060405180830381600087803b1580156108ba57600080fd5b505af11580156108ce573d6000803e3d6000fd5b50505050565b6038546001600160a01b03166001600160a01b0316637ae1cfca336040516020016108ff919061119a565b604051602081830303815290604052805190602001206040518263ffffffff1660e01b815260040161093391815260200190565b602060405180830381865afa158015610950573d6000803e3d6000fd5b505050506040513d601f19601f8201168201806040525081019061097491906111dd565b6109935760405163372463e360e01b815233600482015260240161052b565b600260375414156109b65760405162461bcd60e51b815260040161052b90611206565b60026037556109c36100d7565b506109cc61100d565b604051630c2fea6160e31b81526001600160a01b03848116600483015260248201849052919091169063617f530890604401600060405180830381600087803b158015610a1857600080fd5b505af1158015610a2c573d6000803e3d6000fd5b50505050610a38610efd565b6001600160a01b031663bfdf9cd08383610a50611044565b85610a59610e5e565b610a61610f6b565b610a69610fcb565b6040518863ffffffff1660e01b8152600401610a8b9796959493929190611278565b600060405180830381600087803b158015610aa557600080fd5b505af1158015610ab9573d6000803e3d6000fd5b5050600160375550505050565b6000610ada6038546001600160a01b031690565b6001600160a01b0316637ae1cfca33604051602001610af9919061119a565b604051602081830303815290604052805190602001206040518263ffffffff1660e01b8152600401610b2d91815260200190565b602060405180830381865afa158015610b4a573d6000803e3d6000fd5b505050506040513d601f19601f82011682018060405250810190610b6e91906111dd565b610b8d5760405163372463e360e01b815233600482015260240161052b565b60026037541415610bb05760405162461bcd60e51b815260040161052b90611206565b6002603755610bbd610efd565b6001600160a01b031663bfdf9cd08484610bd5610e5e565b610bdd610f34565b6001600160a01b031663223966ed886040518263ffffffff1660e01b8152600401610c0a91815260200190565b602060405180830381865afa158015610c27573d6000803e3d6000fd5b505050506040513d601f19601f82011682018060405250810190610c4b919061115b565b6105fa610f34565b6038546001600160a01b03166001600160a01b0316637ae1cfca33604051602001610c7e919061119a565b604051602081830303815290604052805190602001206040518263ffffffff1660e01b8152600401610cb291815260200190565b602060405180830381865afa158015610ccf573d6000803e3d6000fd5b505050506040513d601f19601f82011682018060405250810190610cf391906111dd565b610d125760405163372463e360e01b815233600482015260240161052b565b60026037541415610d355760405162461bcd60e51b815260040161052b90611206565b6002603755610d426100d7565b506000610d4d61100d565b604051600162b9224d60e01b031981526001600160a01b03858116600483015260248201859052919091169063ff46ddb3906044016020604051808303816000875af1158015610da1573d6000803e3d6000fd5b505050506040513d601f19601f82011682018060405250810190610dc5919061115b565b9050610dcf610efd565b6001600160a01b031663bfdf9cd08484610de7610e5e565b85610df0611044565b610df8610f6b565b610e00610fcb565b6040518863ffffffff1660e01b8152600401610e229796959493929190611278565b600060405180830381600087803b158015610e3c57600080fd5b505af1158015610e50573d6000803e3d6000fd5b505060016037555050505050565b6000610e726038546001600160a01b031690565b6001600160a01b03166321f8a7216003600001600601604051610e9591906110bf565b60405190819003812060e083901b6001600160e01b03191682526004820152602401602060405180830381865afa158015610ed4573d6000803e3d6000fd5b505050506040513d601f19601f82011682018060405250810190610ef89190611305565b905090565b6000610f116038546001600160a01b031690565b6001600160a01b03166321f8a7216003600001600b01604051610e9591906110bf565b6000610f486038546001600160a01b031690565b6001600160a01b03166321f8a7216003600001600701604051610e9591906110bf565b60408051600180825281830190925260609160009190602080830190803683375050604051919250610fa091601591506110bf565b604051809103902081600081518110610fbb57610fbb611322565b6020908102919091010152919050565b6040805160018082528183019092526060916000919060208083019080368337019050509050670de0b6b3a764000081600081518110610fbb57610fbb611322565b60006110216038546001600160a01b031690565b6001600160a01b03166321f8a7216003600001600301604051610e9591906110bf565b60006110586038546001600160a01b031690565b6001600160a01b03166321f8a7216003600001600501604051610e9591906110bf565b6001600160a01b038116811461109057600080fd5b50565b600080604083850312156110a657600080fd5b82356110b18161107b565b946020939093013593505050565b600080835481600182811c9150808316806110db57607f831692505b60208084108214156110fb57634e487b7160e01b86526022600452602486fd5b81801561110f57600181146111205761114d565b60ff1986168952848901965061114d565b60008a81526020902060005b868110156111455781548b82015290850190830161112c565b505084890196505b509498975050505050505050565b60006020828403121561116d57600080fd5b5051919050565b6000821982111561119557634e487b7160e01b600052601160045260246000fd5b500190565b7f7068616e746f6d2e636f6e74726163742e726567697374657265640000000000815260609190911b6bffffffffffffffffffffffff1916601b820152602f0190565b6000602082840312156111ef57600080fd5b815180151581146111ff57600080fd5b9392505050565b6020808252601f908201527f5265656e7472616e637947756172643a207265656e7472616e742063616c6c00604082015260600190565b600081518084526020808501945080840160005b8381101561126d57815187529582019590820190600101611251565b509495945050505050565b6001600160a01b0388811682526020808301899052878216604084015260608301879052908516608083015260e060a0830181905284519083018190526000918581019161010085019190845b818110156112e1578451845293820193928201926001016112c5565b50505083810360c08501526112f6818661123d565b9b9a5050505050505050505050565b60006020828403121561131757600080fd5b81516111ff8161107b565b634e487b7160e01b600052603260045260246000fdfea2646970667358221220adab54960445160dbe4e342d584a58feb3795ebfa46e153e086af7515f00655a64736f6c634300080a00337068616e746f6d2e666f756e6465722e636c61696d732e72656d61696e696e67416d6f756e747068616e746f6d2e616c6c6f6361746f722e746f6b656e732e616464726573732e6461697068616e746f6d2e666f756e6465722e636c61696d732e696e697469616c416d6f756e747068616e746f6d2e74726561737572792e6163636f756e745f6b65792e76656e747572656361706974616c7068616e746f6d2e616c6c6f6361746f722e746f6b656e732e616464726573732e6461695f70686d5f6c707068616e746f6d2e74726561737572792e617070726f7665642e65787465726e616c2e616464726573737068616e746f6d2e626f6e64696e672e757365722e66697273745f756e72656465656d65645f6e6f6e63657068616e746f6d2e726f7574696e672e7370697269745f726f757465725f616464726573737068616e746f6d2e616c6c6f6361746f722e746f6b656e732e64657374696e6174696f6e737068616e746f6d2e726f7574696e672e7370697269745f666163746f72795f616464726573737068616e746f6d2e616c6c6f6361746f722e746f6b656e732e646573745f70657263656e74616765737068616e746f6d2e74726561737572792e6163636f756e745f6b65792e72657365727665737068616e746f6d2e616c6c6f6361746f722e746f6b656e732e616464726573732e6d696d7068616e746f6d2e616c6c6f6361746f722e746f6b656e732e616464726573732e7766746d7068616e746f6d2e726f7574696e672e7370697269745f67617567655f616464726573737068616e746f6d2e616c6c6f6361746f722e746f6b656e732e616464726573732e7370697269747068616e746f6d2e676f7665726e6f722e71756f72756d50657263656e746167657068616e746f6d2e676f7665726e6f722e70726f706f73616c5468726573686f6c647068616e746f6d2e7374616b696e672e6e657874526562617365446561646c696e657068616e746f6d2e726f7574696e672e7370697269745f67617567655f70726f78795f61646472657373",
    "bytecodeSha1": "da39a3ee5e6b4b0d3255bfef95601890afd80709",
    "compiler": {
        "evm_version": "istanbul",
        "optimizer": {
            "enabled": true,
            "runs": 200
        },
        "version": "0.8.10+commit.fc410830"
    },
    "contractName": "PhantomStaking",
    "language": "Solidity",
    "natspec": {
        "author": "0xrebased @ Bonga Bera Capital: https://github.com/BongaBeraCapital",
        "kind": "dev",
        "methods": {
            "attemptRebase()": {
                "details": "Trigger a rebase if it's time to do so."
            },
            "unwrap(address,uint256)": {
                "notice": "convert amount of gPHM into sPHM",
                "params": {
                    "amount": "uint how much gPHM to unwrap",
                    "toUser": "address who is to own the sPHM?"
                },
                "returns": {
                    "sBalance": "uint amount of sPHM transfered"
                }
            },
            "wrap(address,uint256)": {
                "notice": "convert _amount of sPHM into gPHM",
                "params": {
                    "amount": "uint how much sPHM to wrap",
                    "toUser": "address who is to own the gPHM?"
                },
                "returns": {
                    "gBalance": "uint amount of gPHM minted"
                }
            }
        },
        "notice": "The contract that handles staking sPHM",
        "title": "PhantomStaking",
        "version": 1
    },
    "opcodes": "PUSH1 0x80 PUSH1 0x40 MSTORE CALLVALUE DUP1 ISZERO PUSH2 0x10 JUMPI PUSH1 0x0 DUP1 REVERT JUMPDEST POP PUSH1 0x4 CALLDATASIZE LT PUSH2 0x62 JUMPI PUSH1 0x0 CALLDATALOAD PUSH1 0xE0 SHR DUP1 PUSH4 0xF521280 EQ PUSH2 0x67 JUMPI DUP1 PUSH4 0x39F47693 EQ PUSH2 0x81 JUMPI DUP1 PUSH4 0x58B5E475 EQ PUSH2 0x94 JUMPI DUP1 PUSH4 0xADC9772E EQ PUSH2 0x9E JUMPI DUP1 PUSH4 0xBF376C7A EQ PUSH2 0xB1 JUMPI DUP1 PUSH4 0xC2A672E0 EQ PUSH2 0xC4 JUMPI JUMPDEST PUSH1 0x0 DUP1 REVERT JUMPDEST PUSH2 0x6F PUSH2 0xD7 JUMP JUMPDEST PUSH1 0x40 MLOAD SWAP1 DUP2 MSTORE PUSH1 0x20 ADD PUSH1 0x40 MLOAD DUP1 SWAP2 SUB SWAP1 RETURN JUMPDEST PUSH2 0x6F PUSH2 0x8F CALLDATASIZE PUSH1 0x4 PUSH2 0x1093 JUMP JUMPDEST PUSH2 0x468 JUMP JUMPDEST PUSH2 0x9C PUSH2 0x66A JUMP JUMPDEST STOP JUMPDEST PUSH2 0x9C PUSH2 0xAC CALLDATASIZE PUSH1 0x4 PUSH2 0x1093 JUMP JUMPDEST PUSH2 0x8D4 JUMP JUMPDEST PUSH2 0x6F PUSH2 0xBF CALLDATASIZE PUSH1 0x4 PUSH2 0x1093 JUMP JUMPDEST PUSH2 0xAC6 JUMP JUMPDEST PUSH2 0x9C PUSH2 0xD2 CALLDATASIZE PUSH1 0x4 PUSH2 0x1093 JUMP JUMPDEST PUSH2 0xC53 JUMP JUMPDEST PUSH1 0x0 DUP1 PUSH2 0xEC PUSH1 0x38 SLOAD PUSH1 0x1 PUSH1 0x1 PUSH1 0xA0 SHL SUB AND SWAP1 JUMP JUMPDEST PUSH1 0x1 PUSH1 0x1 PUSH1 0xA0 SHL SUB AND PUSH4 0xBD02D0F5 PUSH1 0x3 PUSH1 0x25 ADD PUSH1 0x1 ADD PUSH1 0x40 MLOAD PUSH1 0x20 ADD PUSH2 0x112 SWAP2 SWAP1 PUSH2 0x10BF JUMP JUMPDEST PUSH1 0x40 MLOAD PUSH1 0x20 DUP2 DUP4 SUB SUB DUP2 MSTORE SWAP1 PUSH1 0x40 MSTORE DUP1 MLOAD SWAP1 PUSH1 0x20 ADD KECCAK256 PUSH1 0x40 MLOAD DUP3 PUSH4 0xFFFFFFFF AND PUSH1 0xE0 SHL DUP2 MSTORE PUSH1 0x4 ADD PUSH2 0x146 SWAP2 DUP2 MSTORE PUSH1 0x20 ADD SWAP1 JUMP JUMPDEST PUSH1 0x20 PUSH1 0x40 MLOAD DUP1 DUP4 SUB DUP2 DUP7 GAS STATICCALL ISZERO DUP1 ISZERO PUSH2 0x163 JUMPI RETURNDATASIZE PUSH1 0x0 DUP1 RETURNDATACOPY RETURNDATASIZE PUSH1 0x0 REVERT JUMPDEST POP POP POP POP PUSH1 0x40 MLOAD RETURNDATASIZE PUSH1 0x1F NOT PUSH1 0x1F DUP3 ADD AND DUP3 ADD DUP1 PUSH1 0x40 MSTORE POP DUP2 ADD SWAP1 PUSH2 0x187 SWAP2 SWAP1 PUSH2 0x115B JUMP JUMPDEST SWAP1 POP TIMESTAMP DUP2 GT PUSH2 0x464 JUMPI PUSH1 0x0 PUSH2 0x1A4 PUSH1 0x38 SLOAD PUSH1 0x1 PUSH1 0x1 PUSH1 0xA0 SHL SUB AND SWAP1 JUMP JUMPDEST PUSH1 0x1 PUSH1 0x1 PUSH1 0xA0 SHL SUB AND PUSH4 0xBD02D0F5 PUSH1 0x3 PUSH1 0x25 ADD PUSH1 0x0 ADD PUSH1 0x40 MLOAD PUSH1 0x20 ADD PUSH2 0x1CA SWAP2 SWAP1 PUSH2 0x10BF JUMP JUMPDEST PUSH1 0x40 MLOAD PUSH1 0x20 DUP2 DUP4 SUB SUB DUP2 MSTORE SWAP1 PUSH1 0x40 MSTORE DUP1 MLOAD SWAP1 PUSH1 0x20 ADD KECCAK256 PUSH1 0x40 MLOAD DUP3 PUSH4 0xFFFFFFFF AND PUSH1 0xE0 SHL DUP2 MSTORE PUSH1 0x4 ADD PUSH2 0x1FE SWAP2 DUP2 MSTORE PUSH1 0x20 ADD SWAP1 JUMP JUMPDEST PUSH1 0x20 PUSH1 0x40 MLOAD DUP1 DUP4 SUB DUP2 DUP7 GAS STATICCALL ISZERO DUP1 ISZERO PUSH2 0x21B JUMPI RETURNDATASIZE PUSH1 0x0 DUP1 RETURNDATACOPY RETURNDATASIZE PUSH1 0x0 REVERT JUMPDEST POP POP POP POP PUSH1 0x40 MLOAD RETURNDATASIZE PUSH1 0x1F NOT PUSH1 0x1F DUP3 ADD AND DUP3 ADD DUP1 PUSH1 0x40 MSTORE POP DUP2 ADD SWAP1 PUSH2 0x23F SWAP2 SWAP1 PUSH2 0x115B JUMP JUMPDEST SWAP1 POP PUSH2 0x249 PUSH2 0xE5E JUMP JUMPDEST PUSH1 0x1 PUSH1 0x1 PUSH1 0xA0 SHL SUB AND PUSH4 0x9D33C8D7 DUP3 PUSH1 0x40 MLOAD DUP3 PUSH4 0xFFFFFFFF AND PUSH1 0xE0 SHL DUP2 MSTORE PUSH1 0x4 ADD PUSH2 0x276 SWAP2 DUP2 MSTORE PUSH1 0x20 ADD SWAP1 JUMP JUMPDEST PUSH1 0x0 PUSH1 0x40 MLOAD DUP1 DUP4 SUB DUP2 PUSH1 0x0 DUP8 DUP1 EXTCODESIZE ISZERO DUP1 ISZERO PUSH2 0x290 JUMPI PUSH1 0x0 DUP1 REVERT JUMPDEST POP GAS CALL ISZERO DUP1 ISZERO PUSH2 0x2A4 JUMPI RETURNDATASIZE PUSH1 0x0 DUP1 RETURNDATACOPY RETURNDATASIZE PUSH1 0x0 REVERT JUMPDEST POP POP POP POP PUSH2 0x2BA PUSH1 0x38 SLOAD PUSH1 0x1 PUSH1 0x1 PUSH1 0xA0 SHL SUB AND SWAP1 JUMP JUMPDEST PUSH1 0x1 PUSH1 0x1 PUSH1 0xA0 SHL SUB AND PUSH4 0xADB353DC PUSH1 0x3 PUSH1 0x25 ADD PUSH1 0x0 ADD PUSH1 0x40 MLOAD PUSH1 0x20 ADD PUSH2 0x2E0 SWAP2 SWAP1 PUSH2 0x10BF JUMP JUMPDEST PUSH1 0x40 DUP1 MLOAD PUSH1 0x1F NOT DUP2 DUP5 SUB ADD DUP2 MSTORE SWAP1 DUP3 SWAP1 MSTORE DUP1 MLOAD PUSH1 0x20 SWAP1 SWAP2 ADD KECCAK256 PUSH1 0x1 PUSH1 0x1 PUSH1 0xE0 SHL SUB NOT PUSH1 0xE0 DUP5 SWAP1 SHL AND DUP3 MSTORE PUSH1 0x4 DUP3 ADD MSTORE PUSH1 0x1 PUSH1 0x24 DUP3 ADD MSTORE PUSH1 0x44 ADD PUSH1 0x0 PUSH1 0x40 MLOAD DUP1 DUP4 SUB DUP2 PUSH1 0x0 DUP8 DUP1 EXTCODESIZE ISZERO DUP1 ISZERO PUSH2 0x333 JUMPI PUSH1 0x0 DUP1 REVERT JUMPDEST POP GAS CALL ISZERO DUP1 ISZERO PUSH2 0x347 JUMPI RETURNDATASIZE PUSH1 0x0 DUP1 RETURNDATACOPY RETURNDATASIZE PUSH1 0x0 REVERT JUMPDEST POP POP POP POP PUSH2 0x35D PUSH1 0x38 SLOAD PUSH1 0x1 PUSH1 0x1 PUSH1 0xA0 SHL SUB AND SWAP1 JUMP JUMPDEST PUSH1 0x1 PUSH1 0x1 PUSH1 0xA0 SHL SUB AND PUSH4 0xE2A4853A PUSH1 0x3 PUSH1 0x25 ADD PUSH1 0x1 ADD PUSH1 0x40 MLOAD PUSH1 0x20 ADD PUSH2 0x383 SWAP2 SWAP1 PUSH2 0x10BF JUMP JUMPDEST PUSH1 0x40 MLOAD PUSH1 0x20 DUP2 DUP4 SUB SUB DUP2 MSTORE SWAP1 PUSH1 0x40 MSTORE DUP1 MLOAD SWAP1 PUSH1 0x20 ADD KECCAK256 PUSH2 0x3A1 PUSH2 0xE5E JUMP JUMPDEST PUSH1 0x1 PUSH1 0x1 PUSH1 0xA0 SHL SUB AND PUSH4 0x4D55FE5F PUSH1 0x40 MLOAD DUP2 PUSH4 0xFFFFFFFF AND PUSH1 0xE0 SHL DUP2 MSTORE PUSH1 0x4 ADD PUSH1 0x20 PUSH1 0x40 MLOAD DUP1 DUP4 SUB DUP2 DUP7 GAS STATICCALL ISZERO DUP1 ISZERO PUSH2 0x3DE JUMPI RETURNDATASIZE PUSH1 0x0 DUP1 RETURNDATACOPY RETURNDATASIZE PUSH1 0x0 REVERT JUMPDEST POP POP POP POP PUSH1 0x40 MLOAD RETURNDATASIZE PUSH1 0x1F NOT PUSH1 0x1F DUP3 ADD AND DUP3 ADD DUP1 PUSH1 0x40 MSTORE POP DUP2 ADD SWAP1 PUSH2 0x402 SWAP2 SWAP1 PUSH2 0x115B JUMP JUMPDEST PUSH2 0x40C SWAP1 DUP7 PUSH2 0x1174 JUMP JUMPDEST PUSH1 0x40 MLOAD PUSH1 0x1 PUSH1 0x1 PUSH1 0xE0 SHL SUB NOT PUSH1 0xE0 DUP6 SWAP1 SHL AND DUP2 MSTORE PUSH1 0x4 DUP2 ADD SWAP3 SWAP1 SWAP3 MSTORE PUSH1 0x24 DUP3 ADD MSTORE PUSH1 0x44 ADD PUSH1 0x0 PUSH1 0x40 MLOAD DUP1 DUP4 SUB DUP2 PUSH1 0x0 DUP8 DUP1 EXTCODESIZE ISZERO DUP1 ISZERO PUSH2 0x44A JUMPI PUSH1 0x0 DUP1 REVERT JUMPDEST POP GAS CALL ISZERO DUP1 ISZERO PUSH2 0x45E JUMPI RETURNDATASIZE PUSH1 0x0 DUP1 RETURNDATACOPY RETURNDATASIZE PUSH1 0x0 REVERT JUMPDEST POP POP POP POP POP JUMPDEST POP SWAP1 JUMP JUMPDEST PUSH1 0x0 PUSH2 0x47C PUSH1 0x38 SLOAD PUSH1 0x1 PUSH1 0x1 PUSH1 0xA0 SHL SUB AND SWAP1 JUMP JUMPDEST PUSH1 0x1 PUSH1 0x1 PUSH1 0xA0 SHL SUB AND PUSH4 0x7AE1CFCA CALLER PUSH1 0x40 MLOAD PUSH1 0x20 ADD PUSH2 0x49B SWAP2 SWAP1 PUSH2 0x119A JUMP JUMPDEST PUSH1 0x40 MLOAD PUSH1 0x20 DUP2 DUP4 SUB SUB DUP2 MSTORE SWAP1 PUSH1 0x40 MSTORE DUP1 MLOAD SWAP1 PUSH1 0x20 ADD KECCAK256 PUSH1 0x40 MLOAD DUP3 PUSH4 0xFFFFFFFF AND PUSH1 0xE0 SHL DUP2 MSTORE PUSH1 0x4 ADD PUSH2 0x4CF SWAP2 DUP2 MSTORE PUSH1 0x20 ADD SWAP1 JUMP JUMPDEST PUSH1 0x20 PUSH1 0x40 MLOAD DUP1 DUP4 SUB DUP2 DUP7 GAS STATICCALL ISZERO DUP1 ISZERO PUSH2 0x4EC JUMPI RETURNDATASIZE PUSH1 0x0 DUP1 RETURNDATACOPY RETURNDATASIZE PUSH1 0x0 REVERT JUMPDEST POP POP POP POP PUSH1 0x40 MLOAD RETURNDATASIZE PUSH1 0x1F NOT PUSH1 0x1F DUP3 ADD AND DUP3 ADD DUP1 PUSH1 0x40 MSTORE POP DUP2 ADD SWAP1 PUSH2 0x510 SWAP2 SWAP1 PUSH2 0x11DD JUMP JUMPDEST PUSH2 0x534 JUMPI PUSH1 0x40 MLOAD PUSH4 0x372463E3 PUSH1 0xE0 SHL DUP2 MSTORE CALLER PUSH1 0x4 DUP3 ADD MSTORE PUSH1 0x24 ADD JUMPDEST PUSH1 0x40 MLOAD DUP1 SWAP2 SUB SWAP1 REVERT JUMPDEST PUSH1 0x2 PUSH1 0x37 SLOAD EQ ISZERO PUSH2 0x557 JUMPI PUSH1 0x40 MLOAD PUSH3 0x461BCD PUSH1 0xE5 SHL DUP2 MSTORE PUSH1 0x4 ADD PUSH2 0x52B SWAP1 PUSH2 0x1206 JUMP JUMPDEST PUSH1 0x2 PUSH1 0x37 SSTORE PUSH2 0x564 PUSH2 0xEFD JUMP JUMPDEST PUSH1 0x1 PUSH1 0x1 PUSH1 0xA0 SHL SUB AND PUSH4 0xBFDF9CD0 DUP5 DUP5 PUSH2 0x57C PUSH2 0xF34 JUMP JUMPDEST PUSH2 0x584 PUSH2 0xF34 JUMP JUMPDEST PUSH1 0x1 PUSH1 0x1 PUSH1 0xA0 SHL SUB AND PUSH4 0xD4FF9A2C DUP9 PUSH1 0x40 MLOAD DUP3 PUSH4 0xFFFFFFFF AND PUSH1 0xE0 SHL DUP2 MSTORE PUSH1 0x4 ADD PUSH2 0x5B1 SWAP2 DUP2 MSTORE PUSH1 0x20 ADD SWAP1 JUMP JUMPDEST PUSH1 0x20 PUSH1 0x40 MLOAD DUP1 DUP4 SUB DUP2 DUP7 GAS STATICCALL ISZERO DUP1 ISZERO PUSH2 0x5CE JUMPI RETURNDATASIZE PUSH1 0x0 DUP1 RETURNDATACOPY RETURNDATASIZE PUSH1 0x0 REVERT JUMPDEST POP POP POP POP PUSH1 0x40 MLOAD RETURNDATASIZE PUSH1 0x1F NOT PUSH1 0x1F DUP3 ADD AND DUP3 ADD DUP1 PUSH1 0x40 MSTORE POP DUP2 ADD SWAP1 PUSH2 0x5F2 SWAP2 SWAP1 PUSH2 0x115B JUMP JUMPDEST PUSH2 0x5FA PUSH2 0xE5E JUMP JUMPDEST PUSH2 0x602 PUSH2 0xF6B JUMP JUMPDEST PUSH2 0x60A PUSH2 0xFCB JUMP JUMPDEST PUSH1 0x40 MLOAD DUP9 PUSH4 0xFFFFFFFF AND PUSH1 0xE0 SHL DUP2 MSTORE PUSH1 0x4 ADD PUSH2 0x62C SWAP8 SWAP7 SWAP6 SWAP5 SWAP4 SWAP3 SWAP2 SWAP1 PUSH2 0x1278 JUMP JUMPDEST PUSH1 0x0 PUSH1 0x40 MLOAD DUP1 DUP4 SUB DUP2 PUSH1 0x0 DUP8 DUP1 EXTCODESIZE ISZERO DUP1 ISZERO PUSH2 0x646 JUMPI PUSH1 0x0 DUP1 REVERT JUMPDEST POP GAS CALL ISZERO DUP1 ISZERO PUSH2 0x65A JUMPI RETURNDATASIZE PUSH1 0x0 DUP1 RETURNDATACOPY RETURNDATASIZE PUSH1 0x0 REVERT JUMPDEST POP POP PUSH1 0x1 PUSH1 0x37 SSTORE POP SWAP1 SWAP4 SWAP3 POP POP POP JUMP JUMPDEST PUSH1 0x38 SLOAD PUSH1 0x1 PUSH1 0x1 PUSH1 0xA0 SHL SUB AND PUSH1 0x1 PUSH1 0x1 PUSH1 0xA0 SHL SUB AND PUSH4 0x7AE1CFCA CALLER PUSH1 0x40 MLOAD PUSH1 0x20 ADD PUSH2 0x695 SWAP2 SWAP1 PUSH2 0x119A JUMP JUMPDEST PUSH1 0x40 MLOAD PUSH1 0x20 DUP2 DUP4 SUB SUB DUP2 MSTORE SWAP1 PUSH1 0x40 MSTORE DUP1 MLOAD SWAP1 PUSH1 0x20 ADD KECCAK256 PUSH1 0x40 MLOAD DUP3 PUSH4 0xFFFFFFFF AND PUSH1 0xE0 SHL DUP2 MSTORE PUSH1 0x4 ADD PUSH2 0x6C9 SWAP2 DUP2 MSTORE PUSH1 0x20 ADD SWAP1 JUMP JUMPDEST PUSH1 0x20 PUSH1 0x40 MLOAD DUP1 DUP4 SUB DUP2 DUP7 GAS STATICCALL ISZERO DUP1 ISZERO PUSH2 0x6E6 JUMPI RETURNDATASIZE PUSH1 0x0 DUP1 RETURNDATACOPY RETURNDATASIZE PUSH1 0x0 REVERT JUMPDEST POP POP POP POP PUSH1 0x40 MLOAD RETURNDATASIZE PUSH1 0x1F NOT PUSH1 0x1F DUP3 ADD AND DUP3 ADD DUP1 PUSH1 0x40 MSTORE POP DUP2 ADD SWAP1 PUSH2 0x70A SWAP2 SWAP1 PUSH2 0x11DD JUMP JUMPDEST PUSH2 0x729 JUMPI PUSH1 0x40 MLOAD PUSH4 0x372463E3 PUSH1 0xE0 SHL DUP2 MSTORE CALLER PUSH1 0x4 DUP3 ADD MSTORE PUSH1 0x24 ADD PUSH2 0x52B JUMP JUMPDEST PUSH1 0x38 SLOAD PUSH1 0x40 MLOAD PUSH1 0x1 PUSH1 0x1 PUSH1 0xA0 SHL SUB SWAP1 SWAP2 AND SWAP1 PUSH4 0xE2A4853A SWAP1 PUSH2 0x750 SWAP1 PUSH1 0x28 SWAP1 PUSH1 0x20 ADD PUSH2 0x10BF JUMP JUMPDEST PUSH1 0x40 DUP1 MLOAD PUSH1 0x1F NOT DUP2 DUP5 SUB ADD DUP2 MSTORE SWAP1 DUP3 SWAP1 MSTORE DUP1 MLOAD PUSH1 0x20 SWAP1 SWAP2 ADD KECCAK256 PUSH1 0x1 PUSH1 0x1 PUSH1 0xE0 SHL SUB NOT PUSH1 0xE0 DUP5 SWAP1 SHL AND DUP3 MSTORE PUSH1 0x4 DUP3 ADD MSTORE PUSH1 0x1 PUSH1 0x24 DUP3 ADD MSTORE PUSH1 0x44 ADD PUSH1 0x0 PUSH1 0x40 MLOAD DUP1 DUP4 SUB DUP2 PUSH1 0x0 DUP8 DUP1 EXTCODESIZE ISZERO DUP1 ISZERO PUSH2 0x7A3 JUMPI PUSH1 0x0 DUP1 REVERT JUMPDEST POP GAS CALL ISZERO DUP1 ISZERO PUSH2 0x7B7 JUMPI RETURNDATASIZE PUSH1 0x0 DUP1 RETURNDATACOPY RETURNDATASIZE PUSH1 0x0 REVERT JUMPDEST POP POP POP POP PUSH2 0x7CD PUSH1 0x38 SLOAD PUSH1 0x1 PUSH1 0x1 PUSH1 0xA0 SHL SUB AND SWAP1 JUMP JUMPDEST PUSH1 0x1 PUSH1 0x1 PUSH1 0xA0 SHL SUB AND PUSH4 0xE2A4853A PUSH1 0x3 PUSH1 0x25 ADD PUSH1 0x1 ADD PUSH1 0x40 MLOAD PUSH1 0x20 ADD PUSH2 0x7F3 SWAP2 SWAP1 PUSH2 0x10BF JUMP JUMPDEST PUSH1 0x40 MLOAD PUSH1 0x20 DUP2 DUP4 SUB SUB DUP2 MSTORE SWAP1 PUSH1 0x40 MSTORE DUP1 MLOAD SWAP1 PUSH1 0x20 ADD KECCAK256 PUSH2 0x811 PUSH2 0xE5E JUMP JUMPDEST PUSH1 0x1 PUSH1 0x1 PUSH1 0xA0 SHL SUB AND PUSH4 0x4D55FE5F PUSH1 0x40 MLOAD DUP2 PUSH4 0xFFFFFFFF AND PUSH1 0xE0 SHL DUP2 MSTORE PUSH1 0x4 ADD PUSH1 0x20 PUSH1 0x40 MLOAD DUP1 DUP4 SUB DUP2 DUP7 GAS STATICCALL ISZERO DUP1 ISZERO PUSH2 0x84E JUMPI RETURNDATASIZE PUSH1 0x0 DUP1 RETURNDATACOPY RETURNDATASIZE PUSH1 0x0 REVERT JUMPDEST POP POP POP POP PUSH1 0x40 MLOAD RETURNDATASIZE PUSH1 0x1F NOT PUSH1 0x1F DUP3 ADD AND DUP3 ADD DUP1 PUSH1 0x40 MSTORE POP DUP2 ADD SWAP1 PUSH2 0x872 SWAP2 SWAP1 PUSH2 0x115B JUMP JUMPDEST PUSH2 0x87C SWAP1 TIMESTAMP PUSH2 0x1174 JUMP JUMPDEST PUSH1 0x40 MLOAD PUSH1 0x1 PUSH1 0x1 PUSH1 0xE0 SHL SUB NOT PUSH1 0xE0 DUP6 SWAP1 SHL AND DUP2 MSTORE PUSH1 0x4 DUP2 ADD SWAP3 SWAP1 SWAP3 MSTORE PUSH1 0x24 DUP3 ADD MSTORE PUSH1 0x44 ADD PUSH1 0x0 PUSH1 0x40 MLOAD DUP1 DUP4 SUB DUP2 PUSH1 0x0 DUP8 DUP1 EXTCODESIZE ISZERO DUP1 ISZERO PUSH2 0x8BA JUMPI PUSH1 0x0 DUP1 REVERT JUMPDEST POP GAS CALL ISZERO DUP1 ISZERO PUSH2 0x8CE JUMPI RETURNDATASIZE PUSH1 0x0 DUP1 RETURNDATACOPY RETURNDATASIZE PUSH1 0x0 REVERT JUMPDEST POP POP POP POP JUMP JUMPDEST PUSH1 0x38 SLOAD PUSH1 0x1 PUSH1 0x1 PUSH1 0xA0 SHL SUB AND PUSH1 0x1 PUSH1 0x1 PUSH1 0xA0 SHL SUB AND PUSH4 0x7AE1CFCA CALLER PUSH1 0x40 MLOAD PUSH1 0x20 ADD PUSH2 0x8FF SWAP2 SWAP1 PUSH2 0x119A JUMP JUMPDEST PUSH1 0x40 MLOAD PUSH1 0x20 DUP2 DUP4 SUB SUB DUP2 MSTORE SWAP1 PUSH1 0x40 MSTORE DUP1 MLOAD SWAP1 PUSH1 0x20 ADD KECCAK256 PUSH1 0x40 MLOAD DUP3 PUSH4 0xFFFFFFFF AND PUSH1 0xE0 SHL DUP2 MSTORE PUSH1 0x4 ADD PUSH2 0x933 SWAP2 DUP2 MSTORE PUSH1 0x20 ADD SWAP1 JUMP JUMPDEST PUSH1 0x20 PUSH1 0x40 MLOAD DUP1 DUP4 SUB DUP2 DUP7 GAS STATICCALL ISZERO DUP1 ISZERO PUSH2 0x950 JUMPI RETURNDATASIZE PUSH1 0x0 DUP1 RETURNDATACOPY RETURNDATASIZE PUSH1 0x0 REVERT JUMPDEST POP POP POP POP PUSH1 0x40 MLOAD RETURNDATASIZE PUSH1 0x1F NOT PUSH1 0x1F DUP3 ADD AND DUP3 ADD DUP1 PUSH1 0x40 MSTORE POP DUP2 ADD SWAP1 PUSH2 0x974 SWAP2 SWAP1 PUSH2 0x11DD JUMP JUMPDEST PUSH2 0x993 JUMPI PUSH1 0x40 MLOAD PUSH4 0x372463E3 PUSH1 0xE0 SHL DUP2 MSTORE CALLER PUSH1 0x4 DUP3 ADD MSTORE PUSH1 0x24 ADD PUSH2 0x52B JUMP JUMPDEST PUSH1 0x2 PUSH1 0x37 SLOAD EQ ISZERO PUSH2 0x9B6 JUMPI PUSH1 0x40 MLOAD PUSH3 0x461BCD PUSH1 0xE5 SHL DUP2 MSTORE PUSH1 0x4 ADD PUSH2 0x52B SWAP1 PUSH2 0x1206 JUMP JUMPDEST PUSH1 0x2 PUSH1 0x37 SSTORE PUSH2 0x9C3 PUSH2 0xD7 JUMP JUMPDEST POP PUSH2 0x9CC PUSH2 0x100D JUMP JUMPDEST PUSH1 0x40 MLOAD PUSH4 0xC2FEA61 PUSH1 0xE3 SHL DUP2 MSTORE PUSH1 0x1 PUSH1 0x1 PUSH1 0xA0 SHL SUB DUP5 DUP2 AND PUSH1 0x4 DUP4 ADD MSTORE PUSH1 0x24 DUP3 ADD DUP5 SWAP1 MSTORE SWAP2 SWAP1 SWAP2 AND SWAP1 PUSH4 0x617F5308 SWAP1 PUSH1 0x44 ADD PUSH1 0x0 PUSH1 0x40 MLOAD DUP1 DUP4 SUB DUP2 PUSH1 0x0 DUP8 DUP1 EXTCODESIZE ISZERO DUP1 ISZERO PUSH2 0xA18 JUMPI PUSH1 0x0 DUP1 REVERT JUMPDEST POP GAS CALL ISZERO DUP1 ISZERO PUSH2 0xA2C JUMPI RETURNDATASIZE PUSH1 0x0 DUP1 RETURNDATACOPY RETURNDATASIZE PUSH1 0x0 REVERT JUMPDEST POP POP POP POP PUSH2 0xA38 PUSH2 0xEFD JUMP JUMPDEST PUSH1 0x1 PUSH1 0x1 PUSH1 0xA0 SHL SUB AND PUSH4 0xBFDF9CD0 DUP4 DUP4 PUSH2 0xA50 PUSH2 0x1044 JUMP JUMPDEST DUP6 PUSH2 0xA59 PUSH2 0xE5E JUMP JUMPDEST PUSH2 0xA61 PUSH2 0xF6B JUMP JUMPDEST PUSH2 0xA69 PUSH2 0xFCB JUMP JUMPDEST PUSH1 0x40 MLOAD DUP9 PUSH4 0xFFFFFFFF AND PUSH1 0xE0 SHL DUP2 MSTORE PUSH1 0x4 ADD PUSH2 0xA8B SWAP8 SWAP7 SWAP6 SWAP5 SWAP4 SWAP3 SWAP2 SWAP1 PUSH2 0x1278 JUMP JUMPDEST PUSH1 0x0 PUSH1 0x40 MLOAD DUP1 DUP4 SUB DUP2 PUSH1 0x0 DUP8 DUP1 EXTCODESIZE ISZERO DUP1 ISZERO PUSH2 0xAA5 JUMPI PUSH1 0x0 DUP1 REVERT JUMPDEST POP GAS CALL ISZERO DUP1 ISZERO PUSH2 0xAB9 JUMPI RETURNDATASIZE PUSH1 0x0 DUP1 RETURNDATACOPY RETURNDATASIZE PUSH1 0x0 REVERT JUMPDEST POP POP PUSH1 0x1 PUSH1 0x37 SSTORE POP POP POP POP JUMP JUMPDEST PUSH1 0x0 PUSH2 0xADA PUSH1 0x38 SLOAD PUSH1 0x1 PUSH1 0x1 PUSH1 0xA0 SHL SUB AND SWAP1 JUMP JUMPDEST PUSH1 0x1 PUSH1 0x1 PUSH1 0xA0 SHL SUB AND PUSH4 0x7AE1CFCA CALLER PUSH1 0x40 MLOAD PUSH1 0x20 ADD PUSH2 0xAF9 SWAP2 SWAP1 PUSH2 0x119A JUMP JUMPDEST PUSH1 0x40 MLOAD PUSH1 0x20 DUP2 DUP4 SUB SUB DUP2 MSTORE SWAP1 PUSH1 0x40 MSTORE DUP1 MLOAD SWAP1 PUSH1 0x20 ADD KECCAK256 PUSH1 0x40 MLOAD DUP3 PUSH4 0xFFFFFFFF AND PUSH1 0xE0 SHL DUP2 MSTORE PUSH1 0x4 ADD PUSH2 0xB2D SWAP2 DUP2 MSTORE PUSH1 0x20 ADD SWAP1 JUMP JUMPDEST PUSH1 0x20 PUSH1 0x40 MLOAD DUP1 DUP4 SUB DUP2 DUP7 GAS STATICCALL ISZERO DUP1 ISZERO PUSH2 0xB4A JUMPI RETURNDATASIZE PUSH1 0x0 DUP1 RETURNDATACOPY RETURNDATASIZE PUSH1 0x0 REVERT JUMPDEST POP POP POP POP PUSH1 0x40 MLOAD RETURNDATASIZE PUSH1 0x1F NOT PUSH1 0x1F DUP3 ADD AND DUP3 ADD DUP1 PUSH1 0x40 MSTORE POP DUP2 ADD SWAP1 PUSH2 0xB6E SWAP2 SWAP1 PUSH2 0x11DD JUMP JUMPDEST PUSH2 0xB8D JUMPI PUSH1 0x40 MLOAD PUSH4 0x372463E3 PUSH1 0xE0 SHL DUP2 MSTORE CALLER PUSH1 0x4 DUP3 ADD MSTORE PUSH1 0x24 ADD PUSH2 0x52B JUMP JUMPDEST PUSH1 0x2 PUSH1 0x37 SLOAD EQ ISZERO PUSH2 0xBB0 JUMPI PUSH1 0x40 MLOAD PUSH3 0x461BCD PUSH1 0xE5 SHL DUP2 MSTORE PUSH1 0x4 ADD PUSH2 0x52B SWAP1 PUSH2 0x1206 JUMP JUMPDEST PUSH1 0x2 PUSH1 0x37 SSTORE PUSH2 0xBBD PUSH2 0xEFD JUMP JUMPDEST PUSH1 0x1 PUSH1 0x1 PUSH1 0xA0 SHL SUB AND PUSH4 0xBFDF9CD0 DUP5 DUP5 PUSH2 0xBD5 PUSH2 0xE5E JUMP JUMPDEST PUSH2 0xBDD PUSH2 0xF34 JUMP JUMPDEST PUSH1 0x1 PUSH1 0x1 PUSH1 0xA0 SHL SUB AND PUSH4 0x223966ED DUP9 PUSH1 0x40 MLOAD DUP3 PUSH4 0xFFFFFFFF AND PUSH1 0xE0 SHL DUP2 MSTORE PUSH1 0x4 ADD PUSH2 0xC0A SWAP2 DUP2 MSTORE PUSH1 0x20 ADD SWAP1 JUMP JUMPDEST PUSH1 0x20 PUSH1 0x40 MLOAD DUP1 DUP4 SUB DUP2 DUP7 GAS STATICCALL ISZERO DUP1 ISZERO PUSH2 0xC27 JUMPI RETURNDATASIZE PUSH1 0x0 DUP1 RETURNDATACOPY RETURNDATASIZE PUSH1 0x0 REVERT JUMPDEST POP POP POP POP PUSH1 0x40 MLOAD RETURNDATASIZE PUSH1 0x1F NOT PUSH1 0x1F DUP3 ADD AND DUP3 ADD DUP1 PUSH1 0x40 MSTORE POP DUP2 ADD SWAP1 PUSH2 0xC4B SWAP2 SWAP1 PUSH2 0x115B JUMP JUMPDEST PUSH2 0x5FA PUSH2 0xF34 JUMP JUMPDEST PUSH1 0x38 SLOAD PUSH1 0x1 PUSH1 0x1 PUSH1 0xA0 SHL SUB AND PUSH1 0x1 PUSH1 0x1 PUSH1 0xA0 SHL SUB AND PUSH4 0x7AE1CFCA CALLER PUSH1 0x40 MLOAD PUSH1 0x20 ADD PUSH2 0xC7E SWAP2 SWAP1 PUSH2 0x119A JUMP JUMPDEST PUSH1 0x40 MLOAD PUSH1 0x20 DUP2 DUP4 SUB SUB DUP2 MSTORE SWAP1 PUSH1 0x40 MSTORE DUP1 MLOAD SWAP1 PUSH1 0x20 ADD KECCAK256 PUSH1 0x40 MLOAD DUP3 PUSH4 0xFFFFFFFF AND PUSH1 0xE0 SHL DUP2 MSTORE PUSH1 0x4 ADD PUSH2 0xCB2 SWAP2 DUP2 MSTORE PUSH1 0x20 ADD SWAP1 JUMP JUMPDEST PUSH1 0x20 PUSH1 0x40 MLOAD DUP1 DUP4 SUB DUP2 DUP7 GAS STATICCALL ISZERO DUP1 ISZERO PUSH2 0xCCF JUMPI RETURNDATASIZE PUSH1 0x0 DUP1 RETURNDATACOPY RETURNDATASIZE PUSH1 0x0 REVERT JUMPDEST POP POP POP POP PUSH1 0x40 MLOAD RETURNDATASIZE PUSH1 0x1F NOT PUSH1 0x1F DUP3 ADD AND DUP3 ADD DUP1 PUSH1 0x40 MSTORE POP DUP2 ADD SWAP1 PUSH2 0xCF3 SWAP2 SWAP1 PUSH2 0x11DD JUMP JUMPDEST PUSH2 0xD12 JUMPI PUSH1 0x40 MLOAD PUSH4 0x372463E3 PUSH1 0xE0 SHL DUP2 MSTORE CALLER PUSH1 0x4 DUP3 ADD MSTORE PUSH1 0x24 ADD PUSH2 0x52B JUMP JUMPDEST PUSH1 0x2 PUSH1 0x37 SLOAD EQ ISZERO PUSH2 0xD35 JUMPI PUSH1 0x40 MLOAD PUSH3 0x461BCD PUSH1 0xE5 SHL DUP2 MSTORE PUSH1 0x4 ADD PUSH2 0x52B SWAP1 PUSH2 0x1206 JUMP JUMPDEST PUSH1 0x2 PUSH1 0x37 SSTORE PUSH2 0xD42 PUSH2 0xD7 JUMP JUMPDEST POP PUSH1 0x0 PUSH2 0xD4D PUSH2 0x100D JUMP JUMPDEST PUSH1 0x40 MLOAD PUSH1 0x1 PUSH3 0xB9224D PUSH1 0xE0 SHL SUB NOT DUP2 MSTORE PUSH1 0x1 PUSH1 0x1 PUSH1 0xA0 SHL SUB DUP6 DUP2 AND PUSH1 0x4 DUP4 ADD MSTORE PUSH1 0x24 DUP3 ADD DUP6 SWAP1 MSTORE SWAP2 SWAP1 SWAP2 AND SWAP1 PUSH4 0xFF46DDB3 SWAP1 PUSH1 0x44 ADD PUSH1 0x20 PUSH1 0x40 MLOAD DUP1 DUP4 SUB DUP2 PUSH1 0x0 DUP8 GAS CALL ISZERO DUP1 ISZERO PUSH2 0xDA1 JUMPI RETURNDATASIZE PUSH1 0x0 DUP1 RETURNDATACOPY RETURNDATASIZE PUSH1 0x0 REVERT JUMPDEST POP POP POP POP PUSH1 0x40 MLOAD RETURNDATASIZE PUSH1 0x1F NOT PUSH1 0x1F DUP3 ADD AND DUP3 ADD DUP1 PUSH1 0x40 MSTORE POP DUP2 ADD SWAP1 PUSH2 0xDC5 SWAP2 SWAP1 PUSH2 0x115B JUMP JUMPDEST SWAP1 POP PUSH2 0xDCF PUSH2 0xEFD JUMP JUMPDEST PUSH1 0x1 PUSH1 0x1 PUSH1 0xA0 SHL SUB AND PUSH4 0xBFDF9CD0 DUP5 DUP5 PUSH2 0xDE7 PUSH2 0xE5E JUMP JUMPDEST DUP6 PUSH2 0xDF0 PUSH2 0x1044 JUMP JUMPDEST PUSH2 0xDF8 PUSH2 0xF6B JUMP JUMPDEST PUSH2 0xE00 PUSH2 0xFCB JUMP JUMPDEST PUSH1 0x40 MLOAD DUP9 PUSH4 0xFFFFFFFF AND PUSH1 0xE0 SHL DUP2 MSTORE PUSH1 0x4 ADD PUSH2 0xE22 SWAP8 SWAP7 SWAP6 SWAP5 SWAP4 SWAP3 SWAP2 SWAP1 PUSH2 0x1278 JUMP JUMPDEST PUSH1 0x0 PUSH1 0x40 MLOAD DUP1 DUP4 SUB DUP2 PUSH1 0x0 DUP8 DUP1 EXTCODESIZE ISZERO DUP1 ISZERO PUSH2 0xE3C JUMPI PUSH1 0x0 DUP1 REVERT JUMPDEST POP GAS CALL ISZERO DUP1 ISZERO PUSH2 0xE50 JUMPI RETURNDATASIZE PUSH1 0x0 DUP1 RETURNDATACOPY RETURNDATASIZE PUSH1 0x0 REVERT JUMPDEST POP POP PUSH1 0x1 PUSH1 0x37 SSTORE POP POP POP POP POP JUMP JUMPDEST PUSH1 0x0 PUSH2 0xE72 PUSH1 0x38 SLOAD PUSH1 0x1 PUSH1 0x1 PUSH1 0xA0 SHL SUB AND SWAP1 JUMP JUMPDEST PUSH1 0x1 PUSH1 0x1 PUSH1 0xA0 SHL SUB AND PUSH4 0x21F8A721 PUSH1 0x3 PUSH1 0x0 ADD PUSH1 0x6 ADD PUSH1 0x40 MLOAD PUSH2 0xE95 SWAP2 SWAP1 PUSH2 0x10BF JUMP JUMPDEST PUSH1 0x40 MLOAD SWAP1 DUP2 SWAP1 SUB DUP2 KECCAK256 PUSH1 0xE0 DUP4 SWAP1 SHL PUSH1 0x1 PUSH1 0x1 PUSH1 0xE0 SHL SUB NOT AND DUP3 MSTORE PUSH1 0x4 DUP3 ADD MSTORE PUSH1 0x24 ADD PUSH1 0x20 PUSH1 0x40 MLOAD DUP1 DUP4 SUB DUP2 DUP7 GAS STATICCALL ISZERO DUP1 ISZERO PUSH2 0xED4 JUMPI RETURNDATASIZE PUSH1 0x0 DUP1 RETURNDATACOPY RETURNDATASIZE PUSH1 0x0 REVERT JUMPDEST POP POP POP POP PUSH1 0x40 MLOAD RETURNDATASIZE PUSH1 0x1F NOT PUSH1 0x1F DUP3 ADD AND DUP3 ADD DUP1 PUSH1 0x40 MSTORE POP DUP2 ADD SWAP1 PUSH2 0xEF8 SWAP2 SWAP1 PUSH2 0x1305 JUMP JUMPDEST SWAP1 POP SWAP1 JUMP JUMPDEST PUSH1 0x0 PUSH2 0xF11 PUSH1 0x38 SLOAD PUSH1 0x1 PUSH1 0x1 PUSH1 0xA0 SHL SUB AND SWAP1 JUMP JUMPDEST PUSH1 0x1 PUSH1 0x1 PUSH1 0xA0 SHL SUB AND PUSH4 0x21F8A721 PUSH1 0x3 PUSH1 0x0 ADD PUSH1 0xB ADD PUSH1 0x40 MLOAD PUSH2 0xE95 SWAP2 SWAP1 PUSH2 0x10BF JUMP JUMPDEST PUSH1 0x0 PUSH2 0xF48 PUSH1 0x38 SLOAD PUSH1 0x1 PUSH1 0x1 PUSH1 0xA0 SHL SUB AND SWAP1 JUMP JUMPDEST PUSH1 0x1 PUSH1 0x1 PUSH1 0xA0 SHL SUB AND PUSH4 0x21F8A721 PUSH1 0x3 PUSH1 0x0 ADD PUSH1 0x7 ADD PUSH1 0x40 MLOAD PUSH2 0xE95 SWAP2 SWAP1 PUSH2 0x10BF JUMP JUMPDEST PUSH1 0x40 DUP1 MLOAD PUSH1 0x1 DUP1 DUP3 MSTORE DUP2 DUP4 ADD SWAP1 SWAP3 MSTORE PUSH1 0x60 SWAP2 PUSH1 0x0 SWAP2 SWAP1 PUSH1 0x20 DUP1 DUP4 ADD SWAP1 DUP1 CALLDATASIZE DUP4 CALLDATACOPY POP POP PUSH1 0x40 MLOAD SWAP2 SWAP3 POP PUSH2 0xFA0 SWAP2 PUSH1 0x15 SWAP2 POP PUSH2 0x10BF JUMP JUMPDEST PUSH1 0x40 MLOAD DUP1 SWAP2 SUB SWAP1 KECCAK256 DUP2 PUSH1 0x0 DUP2 MLOAD DUP2 LT PUSH2 0xFBB JUMPI PUSH2 0xFBB PUSH2 0x1322 JUMP JUMPDEST PUSH1 0x20 SWAP1 DUP2 MUL SWAP2 SWAP1 SWAP2 ADD ADD MSTORE SWAP2 SWAP1 POP JUMP JUMPDEST PUSH1 0x40 DUP1 MLOAD PUSH1 0x1 DUP1 DUP3 MSTORE DUP2 DUP4 ADD SWAP1 SWAP3 MSTORE PUSH1 0x60 SWAP2 PUSH1 0x0 SWAP2 SWAP1 PUSH1 0x20 DUP1 DUP4 ADD SWAP1 DUP1 CALLDATASIZE DUP4 CALLDATACOPY ADD SWAP1 POP POP SWAP1 POP PUSH8 0xDE0B6B3A7640000 DUP2 PUSH1 0x0 DUP2 MLOAD DUP2 LT PUSH2 0xFBB JUMPI PUSH2 0xFBB PUSH2 0x1322 JUMP JUMPDEST PUSH1 0x0 PUSH2 0x1021 PUSH1 0x38 SLOAD PUSH1 0x1 PUSH1 0x1 PUSH1 0xA0 SHL SUB AND SWAP1 JUMP JUMPDEST PUSH1 0x1 PUSH1 0x1 PUSH1 0xA0 SHL SUB AND PUSH4 0x21F8A721 PUSH1 0x3 PUSH1 0x0 ADD PUSH1 0x3 ADD PUSH1 0x40 MLOAD PUSH2 0xE95 SWAP2 SWAP1 PUSH2 0x10BF JUMP JUMPDEST PUSH1 0x0 PUSH2 0x1058 PUSH1 0x38 SLOAD PUSH1 0x1 PUSH1 0x1 PUSH1 0xA0 SHL SUB AND SWAP1 JUMP JUMPDEST PUSH1 0x1 PUSH1 0x1 PUSH1 0xA0 SHL SUB AND PUSH4 0x21F8A721 PUSH1 0x3 PUSH1 0x0 ADD PUSH1 0x5 ADD PUSH1 0x40 MLOAD PUSH2 0xE95 SWAP2 SWAP1 PUSH2 0x10BF JUMP JUMPDEST PUSH1 0x1 PUSH1 0x1 PUSH1 0xA0 SHL SUB DUP2 AND DUP2 EQ PUSH2 0x1090 JUMPI PUSH1 0x0 DUP1 REVERT JUMPDEST POP JUMP JUMPDEST PUSH1 0x0 DUP1 PUSH1 0x40 DUP4 DUP6 SUB SLT ISZERO PUSH2 0x10A6 JUMPI PUSH1 0x0 DUP1 REVERT JUMPDEST DUP3 CALLDATALOAD PUSH2 0x10B1 DUP2 PUSH2 0x107B JUMP JUMPDEST SWAP5 PUSH1 0x20 SWAP4 SWAP1 SWAP4 ADD CALLDATALOAD SWAP4 POP POP POP JUMP JUMPDEST PUSH1 0x0 DUP1 DUP4 SLOAD DUP2 PUSH1 0x1 DUP3 DUP2 SHR SWAP2 POP DUP1 DUP4 AND DUP1 PUSH2 0x10DB JUMPI PUSH1 0x7F DUP4 AND SWAP3 POP JUMPDEST PUSH1 0x20 DUP1 DUP5 LT DUP3 EQ ISZERO PUSH2 0x10FB JUMPI PUSH4 0x4E487B71 PUSH1 0xE0 SHL DUP7 MSTORE PUSH1 0x22 PUSH1 0x4 MSTORE PUSH1 0x24 DUP7 REVERT JUMPDEST DUP2 DUP1 ISZERO PUSH2 0x110F JUMPI PUSH1 0x1 DUP2 EQ PUSH2 0x1120 JUMPI PUSH2 0x114D JUMP JUMPDEST PUSH1 0xFF NOT DUP7 AND DUP10 MSTORE DUP5 DUP10 ADD SWAP7 POP PUSH2 0x114D JUMP JUMPDEST PUSH1 0x0 DUP11 DUP2 MSTORE PUSH1 0x20 SWAP1 KECCAK256 PUSH1 0x0 JUMPDEST DUP7 DUP2 LT ISZERO PUSH2 0x1145 JUMPI DUP2 SLOAD DUP12 DUP3 ADD MSTORE SWAP1 DUP6 ADD SWAP1 DUP4 ADD PUSH2 0x112C JUMP JUMPDEST POP POP DUP5 DUP10 ADD SWAP7 POP JUMPDEST POP SWAP5 SWAP9 SWAP8 POP POP POP POP POP POP POP POP JUMP JUMPDEST PUSH1 0x0 PUSH1 0x20 DUP3 DUP5 SUB SLT ISZERO PUSH2 0x116D JUMPI PUSH1 0x0 DUP1 REVERT JUMPDEST POP MLOAD SWAP2 SWAP1 POP JUMP JUMPDEST PUSH1 0x0 DUP3 NOT DUP3 GT ISZERO PUSH2 0x1195 JUMPI PUSH4 0x4E487B71 PUSH1 0xE0 SHL PUSH1 0x0 MSTORE PUSH1 0x11 PUSH1 0x4 MSTORE PUSH1 0x24 PUSH1 0x0 REVERT JUMPDEST POP ADD SWAP1 JUMP JUMPDEST PUSH32 0x7068616E746F6D2E636F6E74726163742E726567697374657265640000000000 DUP2 MSTORE PUSH1 0x60 SWAP2 SWAP1 SWAP2 SHL PUSH12 0xFFFFFFFFFFFFFFFFFFFFFFFF NOT AND PUSH1 0x1B DUP3 ADD MSTORE PUSH1 0x2F ADD SWAP1 JUMP JUMPDEST PUSH1 0x0 PUSH1 0x20 DUP3 DUP5 SUB SLT ISZERO PUSH2 0x11EF JUMPI PUSH1 0x0 DUP1 REVERT JUMPDEST DUP2 MLOAD DUP1 ISZERO ISZERO DUP2 EQ PUSH2 0x11FF JUMPI PUSH1 0x0 DUP1 REVERT JUMPDEST SWAP4 SWAP3 POP POP POP JUMP JUMPDEST PUSH1 0x20 DUP1 DUP3 MSTORE PUSH1 0x1F SWAP1 DUP3 ADD MSTORE PUSH32 0x5265656E7472616E637947756172643A207265656E7472616E742063616C6C00 PUSH1 0x40 DUP3 ADD MSTORE PUSH1 0x60 ADD SWAP1 JUMP JUMPDEST PUSH1 0x0 DUP2 MLOAD DUP1 DUP5 MSTORE PUSH1 0x20 DUP1 DUP6 ADD SWAP5 POP DUP1 DUP5 ADD PUSH1 0x0 JUMPDEST DUP4 DUP2 LT ISZERO PUSH2 0x126D JUMPI DUP2 MLOAD DUP8 MSTORE SWAP6 DUP3 ADD SWAP6 SWAP1 DUP3 ADD SWAP1 PUSH1 0x1 ADD PUSH2 0x1251 JUMP JUMPDEST POP SWAP5 SWAP6 SWAP5 POP POP POP POP POP JUMP JUMPDEST PUSH1 0x1 PUSH1 0x1 PUSH1 0xA0 SHL SUB DUP9 DUP2 AND DUP3 MSTORE PUSH1 0x20 DUP1 DUP4 ADD DUP10 SWAP1 MSTORE DUP8 DUP3 AND PUSH1 0x40 DUP5 ADD MSTORE PUSH1 0x60 DUP4 ADD DUP8 SWAP1 MSTORE SWAP1 DUP6 AND PUSH1 0x80 DUP4 ADD MSTORE PUSH1 0xE0 PUSH1 0xA0 DUP4 ADD DUP2 SWAP1 MSTORE DUP5 MLOAD SWAP1 DUP4 ADD DUP2 SWAP1 MSTORE PUSH1 0x0 SWAP2 DUP6 DUP2 ADD SWAP2 PUSH2 0x100 DUP6 ADD SWAP2 SWAP1 DUP5 JUMPDEST DUP2 DUP2 LT ISZERO PUSH2 0x12E1 JUMPI DUP5 MLOAD DUP5 MSTORE SWAP4 DUP3 ADD SWAP4 SWAP3 DUP3 ADD SWAP3 PUSH1 0x1 ADD PUSH2 0x12C5 JUMP JUMPDEST POP POP POP DUP4 DUP2 SUB PUSH1 0xC0 DUP6 ADD MSTORE PUSH2 0x12F6 DUP2 DUP7 PUSH2 0x123D JUMP JUMPDEST SWAP12 SWAP11 POP POP POP POP POP POP POP POP POP POP POP JUMP JUMPDEST PUSH1 0x0 PUSH1 0x20 DUP3 DUP5 SUB SLT ISZERO PUSH2 0x1317 JUMPI PUSH1 0x0 DUP1 REVERT JUMPDEST DUP2 MLOAD PUSH2 0x11FF DUP2 PUSH2 0x107B JUMP JUMPDEST PUSH4 0x4E487B71 PUSH1 0xE0 SHL PUSH1 0x0 MSTORE PUSH1 0x32 PUSH1 0x4 MSTORE PUSH1 0x24 PUSH1 0x0 REVERT INVALID LOG2 PUSH5 0x6970667358 0x22 SLT KECCAK256 0xAD 0xAB SLOAD SWAP7 DIV GASLIMIT AND 0xD 0xBE 0x4E CALLVALUE 0x2D PC 0x4A PC INVALID 0xB3 PUSH26 0x5EBFA46E153E086AF7515F00655A64736F6C634300080A003300 ",
    "sha1": "c15910b201c1dac55854d0131675168d7a01c39f",
    "source": "/* SPDX-License-Identifier: MIT */\npragma solidity =0.8.10;\n\n/* Package Imports */\nimport {PRBMathUD60x18} from \"@hifi-finance/prb-math/contracts/PRBMathUD60x18.sol\";\nimport {SafeERC20} from \"@openzeppelin/contracts/token/ERC20/utils/SafeERC20.sol\";\n\n/* Package Interface Imports */\nimport {IERC20} from \"@openzeppelin/contracts/token/ERC20/IERC20.sol\";\n\n/* Internal Imports */\nimport {PhantomStorageMixin} from \"../../mixins/PhantomStorageMixin.sol\";\n\n/* Internal Interface Imports */\nimport {IPhantomStaking} from \"../../../interfaces/level0/staking/IPhantomStaking.sol\";\nimport {IPhantomStakingWarmup} from \"../../../interfaces/level0/staking/IPhantomStakingWarmup.sol\";\n\n/**\n * @title PhantomStaking\n * @author 0xrebased @ Bonga Bera Capital: https://github.com/BongaBeraCapital\n * @notice The contract that handles staking sPHM\n */\ncontract PhantomStaking is PhantomStorageMixin, IPhantomStaking {\n    using PRBMathUD60x18 for uint256;\n    using SafeERC20 for IERC20;\n\n    constructor(address storageFactoryAddress) PhantomStorageMixin(storageFactoryAddress) {\n        return;\n    }\n\n    //=================================================================================================================\n    // External Functionss\n    //=================================================================================================================\n\n    function initializeRebasing() external onlyRegisteredContracts {\n        // Set rebase state\n        PhantomStorage().setUint(\n            keccak256(abi.encodePacked(phantom.staking.rebaseCounter)), \n            1\n        );\n        PhantomStorage().setUint(\n            keccak256(abi.encodePacked(phantom.staking.nextRebaseDeadline)), \n            block.timestamp + sPHM().secondsPerCompoundingPeriod()\n        );\n    }\n\n    function stake(\n        address inStaker,\n        uint256 inAmount\n    ) external override onlyRegisteredContracts nonReentrant {\n        attemptRebase();\n        PhantomStakingWarmup().beginVesting(inStaker, inAmount);\n        // Burn the OHM and mint sOHM\n        PhantomTreasury().swapBurnMint(\n            inStaker,\n            inAmount,\n            address(PHM()),\n            inAmount,\n            address(sPHM()),\n            reserveKey(),\n            percentage100()\n        );\n    }\n\n    function unstake(\n        address inUnstaker,\n        uint256 inAmount\n    ) external override onlyRegisteredContracts nonReentrant {\n        attemptRebase();\n        uint256 amountToUnstake = PhantomStakingWarmup().copyVestedAmount(inUnstaker, inAmount);\n        // Burn the sPHM and mint PHM\n        PhantomTreasury().swapBurnMint(\n            inUnstaker,\n            inAmount,\n            address(sPHM()),\n            amountToUnstake,\n            address(PHM()),\n            reserveKey(),\n            percentage100()\n        );\n    }\n\n    /**\n     * @notice convert _amount of sPHM into gPHM\n     * @param toUser address who is to own the gPHM?\n     * @param amount uint how much sPHM to wrap\n     * @return gBalance uint amount of gPHM minted\n     */\n    function wrap(\n        address toUser, \n        uint256 amount\n    ) external override onlyRegisteredContracts nonReentrant returns (uint256 gBalance) {\n        // Burn the sPHM and mint gPHM\n        PhantomTreasury().swapBurnMint(\n            toUser,\n            amount,\n            address(sPHM()),\n            gPHM().balanceFromPHM(amount),\n            address(gPHM()),\n            reserveKey(),\n            percentage100()\n        );\n    }\n\n    /**\n     * @notice convert amount of gPHM into sPHM\n     * @param toUser address who is to own the sPHM?\n     * @param amount uint how much gPHM to unwrap\n     * @return sBalance uint amount of sPHM transfered\n     */\n    function unwrap(\n        address toUser, \n        uint256 amount\n    ) external override onlyRegisteredContracts nonReentrant returns (uint256 sBalance) {\n        // Burn the gPHM and mint sPHM\n        PhantomTreasury().swapBurnMint(\n            toUser,\n            amount,\n            address(gPHM()),\n            gPHM().balanceToPHM(amount),\n            address(sPHM()),\n            reserveKey(),\n            percentage100()\n        );\n    }\n\n    /**\n     * @dev Trigger a rebase if it's time to do so.\n     */\n    function attemptRebase() public returns (uint256) {\n        uint256 nextRebaseDeadline = PhantomStorage().getUint(keccak256(\n            abi.encodePacked(phantom.staking.nextRebaseDeadline))\n        );\n\n        if (nextRebaseDeadline <= block.timestamp) {\n            uint256 rebaseCounter = PhantomStorage().getUint( keccak256(\n                abi.encodePacked(phantom.staking.rebaseCounter))\n            );\n\n            // Do the rebase\n            sPHM().doRebase(rebaseCounter);\n\n            // Set state for next rebase\n            PhantomStorage().addUint(keccak256(\n                abi.encodePacked(phantom.staking.rebaseCounter)), \n                1\n            );\n            PhantomStorage().setUint(keccak256(\n                abi.encodePacked(phantom.staking.nextRebaseDeadline)), \n                nextRebaseDeadline + sPHM().secondsPerCompoundingPeriod()\n            );\n        }\n    }\n\n    //=================================================================================================================\n    // Interface Referances\n    //=================================================================================================================\n\n    function PhantomStakingWarmup() internal view returns (IPhantomStakingWarmup) {\n        return IPhantomStakingWarmup(PhantomStorage().getAddress(keccak256(phantom.contracts.stakingwarmup)));\n    }\n}\n",
    "sourcePath": "contracts/level0/staking/PhantomStaking.sol",
    "type": "contract"
}